:020000040810E2
:100000000080041019241008E9211008F1211008BB
:10001000F3211008F5211008F72110080000000056
:10002000000000000000000000000000F92110089E
:10003000FB21100800000000FD211008FF2110081E
:10004000692410086924100869241008692410081C
:10005000692410086924100869241008692410080C
:10006000032210080B22100813221008692410081C
:1000700069241008692410086924100869241008EC
:1000800069241008692410086924100869241008DC
:100090006924100869241008692410081B2210081C
:1000A00069241008692410086924100869241008BC
:1000B00069241008692410086924100869241008AC
:1000C000692410086924100869241008692410089C
:1000D000692410086924100869241008692410088C
:1000E000312210086924100800000000692410085B
:1000F000692410086924100869241008692410086C
:10010000692410086924100869241008692410085B
:10011000692410086924100869241008692410084B
:10012000692410086924100869241008692410083B
:10013000692410086924100869241008692410082B
:100140004D22100869241008000000000000000083
:10015000692410086924100869241008692410080B
:1001600069241008692410086924100869241008FB
:10017000692410083D2210086924100800000000BE
:1001800069241008692410086924100869241008DB
:1001900069241008692410086924100869241008CB
:1001A00069241008692410086924100869241008BB
:1001B00069241008692410086924100869241008AB
:1001C000692410086924100869241008692410089B
:1001D000692410086924100869241008692410088B
:1001E000692410086924100869241008692410087B
:1001F000692410086924100869241008692410086B
:10020000692410086924100869241008692410085A
:10021000692410086924100869241008692410084A
:10022000692410086924100837221008692410086E
:10023000692410086924100849221008692410084C
:10024000692410086924100869241008692410081A
:10025000692410086924100869241008692410080A
:1002600069241008692410086924100869241008FA
:1002700069241008692410086924100869241008EA
:10028000692410086924100869241008000000007F
:0802900069241008692410081C
:1002A00010B5054C237833B9044B13B10448AFF3B0
:1002B00000800123237010BDE80100100000000041
:1002C00028D6100808B5034B1BB103490348AFF308
:1002D000008008BD00000000EC01001028D61008C6
:1002E00010F8012B11F8013B012A28BF9A42F7D0E0
:1002F000D01A7047034613F8012B002AFBD1181AB5
:1003000001387047000000000000000000000000FD
:1003100001F0FF01102A2BDB10F0070F08D010F8B6
:10032000013B013A8B422DD010F0070F42B3F6D1BA
:10033000F0B441EA012141EA014122F007047FF0D3
:1003400000070023F0E80256083C85EA010586EA2A
:10035000010685FA47F5A3FA87F586FA47F6A5FA66
:1003600087F68EB9EED1F0BC01F0FF0102F0070272
:1003700032B110F8013B013A83EA010313B1F8D11D
:100380000020704701387047002D06BF35460338FE
:10039000073815F0010F07D1013015F4807F02BF37
:1003A000013015F4C03F0130F0BC0138704700BF88
:1003B00081F0004102E000BF83F0004330B54FEA16
:1003C00041044FEA430594EA050F08BF90EA020F83
:1003D0001FBF54EA000C55EA020C7FEA645C7FEA16
:1003E000655C00F0E2804FEA5454D4EB5555B8BF39
:1003F0006D420CDD2C4480EA020281EA030382EAAA
:10040000000083EA010180EA020281EA0303362D3B
:1004100088BF30BD11F0004F4FEA01314FF4801C0E
:100420004CEA113102D0404261EB410113F0004F20
:100430004FEA03334CEA133302D0524263EB4303D7
:1004400094EA050F00F0A780A4F10104D5F1200E75
:100450000DDB02FA0EFC22FA05F2801841F10001D0
:1004600003FA0EF2801843FA05F359410EE0A5F1A4
:1004700020050EF1200E012A03FA0EFC28BF4CF0D5
:10048000020C43FA05F3C01851EBE37101F000458B
:1004900007D54FF0000EDCF1000C7EEB00006EEB98
:1004A0000101B1F5801F1BD3B1F5001F0CD3490822
:1004B0005FEA30004FEA3C0C04F101044FEA445279
:1004C00012F5800F80F09A80BCF1004F08BF5FEA00
:1004D000500C50F1000041EB045141EA050130BDE0
:1004E0005FEA4C0C404141EB0101013C28BFB1F5F2
:1004F000801FE9D291F0000F04BF01460020B1FA3D
:1005000081F308BF2033A3F10B03B3F120020CDA0F
:100510000C3208DD02F1140CC2F10C0201FA0CF0ED
:1005200021FA02F10CE002F11402D8BFC2F1200C52
:1005300001FA02F120FA0CFCDCBF41EA0C01904008
:10054000E41AA2BF01EB0451294330BD6FEA040451
:100550001F3C1CDA0C340EDC04F11404C4F120023C
:1005600020FA04F001FA02F340EA030021FA04F34E
:1005700045EA030130BDC4F10C04C4F1200220FAA5
:1005800002F001FA04F340EA0300294630BD21FAE3
:1005900004F0294630BD94F0000F83F4801306BFA9
:1005A00081F480110134013D4EE77FEA645C18BF9D
:1005B0007FEA655C29D094EA050F08BF90EA020F34
:1005C00005D054EA000C04BF1946104630BD91EA2C
:1005D000030F1EBF0021002030BD5FEA545C05D12F
:1005E0004000494128BF41F0004130BD14F580046E
:1005F0003CBF01F5801130BD01F0004545F0FE41E2
:1006000041F470014FF0000030BD7FEA645C1ABF16
:10061000194610467FEA655C1CBF0B46024650EA4D
:10062000013406BF52EA033591EA030F41F4002179
:1006300030BD00BF90F0000F04BF0021704730B5FF
:100640004FF4806404F132044FF000054FF00001D4
:1006500050E700BF90F0000F04BF0021704730B595
:100660004FF4806404F1320410F0004548BF40426A
:100670004FF000013EE700BF42004FEAE2014FEABF
:1006800031014FEA02701FBF12F07F4393F07F4F9A
:1006900081F06051704732F07F4208BF704793F09D
:1006A0007F4F04BF41F40021704730B54FF46074B0
:1006B00001F0004521F000411CE700BF50EA0102B3
:1006C00008BF704730B54FF000050AE050EA01025C
:1006D00008BF704730B511F0004502D5404261EBCC
:1006E00041014FF4806404F132045FEA915C3FF40D
:1006F000D8AE4FF003025FEADC0C18BF03325FEAAA
:10070000DC0C18BF033202EBDC02C2F1200300FA5A
:1007100003FC20FA02F001FA03FE40EA0E0021FA7F
:1007200002F11444BDE600BF4FEA4102B2F1E043DA
:1007300024BFB3F5001CDCF1FE5C0DD901F0004CC8
:100740004FEAC0024CEA5070B2F1004F40EB830018
:1007500008BF20F00100704711F0804F21D113F144
:100760003872BCBF01F00040704741F480114FEA7D
:100770005252C2F11802C2F1200C10FA0CF320FA06
:1007800002F018BF40F001004FEAC1234FEAD32323
:1007900003FA0CFC40EA0C0023FA02F34FEA43038D
:1007A000CCE77FEA625307D150EA01331EBF4FF016
:1007B000FE4040F44000704701F0004040F0FE4031
:1007C00040F40000704700BF53B94AB9002908BF80
:1007D00000281CBF4FF0FF314FF0FF3000F06AB926
:1007E000ADF1080C6DE904CE00F006F8DDF804E088
:1007F000DDE9022304B070472DE9F047089D0C465F
:10080000002B4ED194468C458646B2FA82F262D9CC
:100810004AB1C2F12003914020FA03F30CFA02FC22
:10082000194300FA02FE4FEA1C471FFA8CF6B1FB8F
:10083000F7F44FEA1E4307FB141143EA014304FB9C
:1008400006F199420AD91CEB030304F1FF3080F052
:100850001281994240F20F81023C6344591A1FFAF7
:100860008EF3B1FBF7F007FB101143EA014300FBE5
:1008700006F69E420AD91CEB030300F1FF3180F01B
:10088000FC809E4240F2F980634402389B1B40EAA0
:10089000044000211DB1D3400022C5E90032BDE86B
:1008A000F0878B4205D90DB1C5E90001002108464A
:1008B000F5E7B3FA83F1002946D1A34202D390426F
:1008C000C0F0F080861A64EB03030120002DE6D00F
:1008D000C5E90063E3E7002A40F09080A1EB0C0437
:1008E0004FEA1C481FFA8CF70121B4FBF8F64FEAD7
:1008F0001E4308FB164443EA044307FB06F09842F4
:1009000008D91CEB030306F1FF3402D2984200F22F
:10091000CD8026461C1A1FFA8EF3B4FBF8F008FBB4
:10092000104443EA044300FB07F79F4208D91CEB3D
:10093000030300F1FF3402D29F4200F2B080204650
:10094000DB1B40EA0640A5E7C1F120068B4022FAF6
:1009500006F71F4320FA06FC04FA01F343EA0C03EE
:10096000F44000FA01F8380C4FEA1349B4FBF0FEEA
:100970001FFA87FC00FB1E4449EA04440EFB0CF9F5
:10098000A14502FA01F20AD93C190EF1FF3A80F0B2
:100990008480A14540F28180AEF1020E3C44A4EB7C
:1009A00009041FFA83F9B4FBF0F300FB134449EA8E
:1009B000044403FB0CFCA44507D93C1903F1FF30A8
:1009C00067D2A44565D9023B3C4443EA0E40A0FBF4
:1009D0000293A4EB0C049C42CE469C4651D34ED0CD
:1009E00055B1B8EB0E0364EB0C0404FA06F6CB40E9
:1009F0001E43CC40C5E90064002150E7C2F120034A
:100A000020FA03F10CFA02FC24FA03F394400C439D
:100A10004FEA1C4800FA02FE1FFA8CF7B3FBF8F00D
:100A200008FB1031230C43EA014300FB07F1994214
:100A300008D91CEB030300F1FF362CD299422AD9C6
:100A4000023863445B1AA4B2B3FBF8F108FB11331C
:100A500044EA034401FB07F3A34208D91CEB040456
:100A600001F1FF3613D2A34211D902396444E41ACA
:100A700041EA004139E70446F0E6084606E7C84582
:100A8000AED2B9EB020E63EB070C0138A8E7314692
:100A9000EDE7034699E73046D4E7D6467FE763445F
:100AA00002384DE70646234608460FE7023E6344F8
:100AB00030E700BF704700BFCB7803708B7843707E
:100AC0004B7883700B78C3707047884207B50B462C
:100AD0000ED8017801F0E002C90654BF411C811C08
:100AE000602A40D009D8202A23D0402A39D002B128
:100AF0000021084603B05DF804FBC02A04D01AD8D0
:100B0000802A32D0A02AF3D19942F1D808780190F6
:100B100000062CD5C81C8342EAD301A8FFF7CCFFFE
:100B2000019B23F0004301930431019BA02A194447
:100B3000DFD10131DDE7E02ADAD19942D8D80A784D
:100B40000192120609D5CA1C9342D1D301A8FFF71E
:100B5000B3FF019B23F000430193019B013B194428
:100B6000C7E70231C5E70431C3E70831C1E7013106
:100B7000DBE72DE9F3470A9F0E469846054618B96C
:100B8000002002B0BDE8F087002B4FD01C68002C7D
:100B90004CDD022CF4DD013C044495F8009009F092
:100BA000E003E02BECD119F0100FE9D1A9F1E0033B
:100BB000022BE5D8691C0CB18C42E1D36B78019310
:100BC000180635D514B12B1D9C42D9D301A8FFF7C7
:100BD00073FF019B23F000430193691DDDF804A01E
:100BE0000CB1A142CCD80B7801931B0622D514B1CD
:100BF000CB1C9C42C4D301A8FFF75EFF019B23F0EE
:100C0000004301930431BAF1020F019BB8DD002BC0
:100C1000B6DB0EB1C6F8009002B11360B8F1000F58
:100C200001D0C8F800A03FB90120AAE70024B4E72A
:100C3000A91CD3E70131E6E7491B3960F4E700005E
:100C4000A72825DCA52847DC612812DC5F283DDCCD
:100C500000283DD03EDB212805DC1F28C8BFF2203C
:100C6000D8BF00207047403801288CBF0020F220F8
:100C70007047822830D003DC62282DD08038F3E71B
:100C800083282BD0A03804288CBF0020F420704784
:100C90004BF2050398420ADCB0F5304F1EDCC02849
:100CA0001ED0E03802288CBF0020F72070474DF29C
:100CB0000403984204DCB0F5504FC8BFF520CFE7DD
:100CC000084B98420CBFF62000207047F220704776
:100CD000F120704700207047F3207047F4207047E0
:100CE000F520704761000800602812D00BDC402816
:100CF0000FD006DC20280CD021280CBF0B200020B0
:100D000070474128F9E7802803D0812803D0612863
:100D1000F3E7162070470B207047402A1AD006DCF4
:100D20000AB901207047202A11D000207047802A7C
:100D300014D004DC602AF8D103680B60F1E7C02A04
:100D400003D022F04002A02AEFD10860E9E703783F
:100D50000B70E6E7B0F900300B80E2E7D0E9002342
:100D6000C1E90023DDE7602AF8B50546104648D002
:100D70000DDC402A43D005DC202A3BD0212A0ED0AE
:100D8000002066E0412AFBD1B5F9004009E0802A45
:100D900039D0812A2BD0612AF2D12C6801E095F953
:100DA0000040E61700273D46FFF79EFF16282FD18B
:100DB0001846FFF799FF0B2803D1002D3C462E461D
:100DC000DEDB602B60D03CDC402B55D02CDC202BB4
:100DD0004BD0212BD4D114F1800346F10006B3F59A
:100DE000807F76F10006CBD20C70012031E0D5E98E
:100DF0000046D7E72F7800252C462E46D4E72F88CB
:100E0000F9E72F68F7E70024D5E900752646CBE718
:100E10000B28D6D11846FFF767FF1628D1D1002E30
:100E2000AEDB27463546CCE7412BA9D114F500436C
:100E300046F10006B3F5803F76F10006A0D20C80A3
:100E4000D3E7802B25D0812B0CD0612B4FF00000F5
:100E500000D0F8BD14F1004346F10006002EF8D191
:100E60000C60C2E7C1E90046BFE7B7F5807F75F1C6
:100E7000000585D20F70B8E7B7F5803F75F1000522
:100E8000BFF47EAF0F80B0E7002D7FF479AF0F6025
:100E9000ABE7C1E90075A8E77FB506460D461446E5
:100EA00002B344220021201D0BF0B6FC464B236008
:100EB000AE4217D8314611F8013BD80603F0E002E4
:100EC00006D58D420ED3314631F8023B5BBA9BB258
:100ED000602A236250D008D8202A33D0402A38D044
:100EE000002A42D0002004B070BDC02A04D01BD814
:100EF000802A4AD0A02AF5D1A942F3D80B780393CF
:100F00001B0652D5CB1C9D42ECD303A8FFF7D4FDA2
:100F1000039B23F0004303930431039A531E0B44B5
:100F20009D42DFD3A26212E0E02ADBD1002166629B
:100F300004F12803009104F12C023046FFF719FE5A
:100F400098B9CFE7A942CDD80B7884F838306162E0
:100F50000BE04B1C9D42C5D34B7884F838300B789E
:100F600084F8393004F138036362226A012A1ED002
:100F7000022A23D00120B6E7CB1C9D42B2D304F154
:100F80003800FFF799FD6062EFE7CB1D9D42A9D3C2
:100F900004F1380001F1080304F1370213F8015D90
:100FA00002F8015F9942F9D1EDE70131B5E7074B4E
:100FB0002362234643F8382F6362DBE7034B236247
:100FC00000222346F6E700BF1FB1221F6100080080
:100FD0002DE9F84FDDF828A0013A85184418064697
:100FE00050469946FFF786F94FF0000B0746CB4570
:100FF00001DB002412E0AC42FBD8204610F8018B44
:1010000000EB0804AC42F4D8B8F1000F09D0424616
:1010100051460BF009FC38B9B84505D12046BDE86A
:10102000F88F0446002FF9D020462946FFF74DFDE2
:1010300004460028F2D08642DBD80BF1010BD6E73C
:101040002DE9F047054610461E46FFF7F9FD80469C
:101050003046FFF7F5FD8045DDF820900F4613D1AF
:10106000B8F1F20F07D1B2421ED033462846BDE890
:10107000F047FFF778BEB8F1F30F15D1B24213D0A5
:10108000622A03D0822A09D0002005E02868FFF7F1
:10109000F3FAC7E900010120BDE8F087D5E90001B6
:1010A000FFF742FB3860F6E74A4639462846BDE876
:1010B000F047FFF732BE37B50246F0B1C36A0169A7
:1010C000C4697F2B1BDD4D1D43F0004301A9284659
:1010D000033C0193FFF7F0FC7F2C15DD033444F053
:1010E0000043281F01A90193FFF7E6FC136A00F8EB
:1010F000013DC2E909040023D36003B030BD063CC2
:1011000001F108050B72E7E7681E05F8014CEDE7F1
:10111000031E10B519DBFF2B09DC03F0E00403F01C
:101120000F03012001B10C6002B1136010BDB3F5D3
:10113000803F05DA1C1204F0E004C3F30713F0E764
:1011400013F4002002D09BB2E5E700204FF0FF33FC
:101150001C46E7E710B5044650B10268054B9A42B9
:1011600006D183681BB1C3680BB1FFF7A4FF646AA3
:10117000204610BD1FB1221FF0B587B000230F46D7
:1011800016460493FFF7E6FF0446F0B1EFB1E6B16F
:1011900005AB009303AA04AB02A9FFF7EAFCA0B1D8
:1011A000029BE22B11D1039B7BB1049D0599009713
:1011B0002A462046FFF70CFF38B1691E324621440B
:1011C00007B0BDE8F040FFF767BE002007B0F0BDF4
:1011D000022807B503DC002804DD602007E0054B8A
:1011E0009842FAD0002201A9FFF792FF019803B0BC
:1011F0005DF804FB6100080010B504460846FFF7DF
:10120000E7FF60280FD004DC20280FD0402810D042
:1012100010BD802810D07F28FADDC02803D020F030
:101220004003A02BF4D100232360F1E700232370B7
:10123000EEE700232380EBE700220023C4E900232C
:10124000E6E72DE9F043074695B010468846154677
:101250001C46FFF7BDFFDDF87090064620B11CB9B3
:10126000002015B0BDE8F08329462046FFF7C4FFF3
:1012700002AA41463846FFF77FFF0028F0D00A9ABD
:101280000B9800962B462146FFF7DAFE0028E7D0A0
:10129000B9F1000F01D10120E3E70C9BC9F8003040
:1012A000F9E71FB50023009320220DF10F03FFF78C
:1012B000C8FF9DF80F0005B05DF804FB1FB50023C3
:1012C000009340220DF10E03FFF7BBFFBDF80E00A7
:1012D00005B05DF804FB1FB500230093602203AB4B
:1012E000FFF7AFFF039805B05DF804FB1FB50023BF
:1012F0000093A02203ABFFF7A4FF039805B05DF8AD
:1013000004FB0000054BD3F8882042F47002C3F8B8
:1013100088201A6942F010021A61704700ED00E05F
:101320001F4BD3F8E02042F00202C3F8E020D3F8CC
:10133000E02086B002F002020192019AD3F8E02088
:1013400042F00102C3F8E020D3F8E02002F00102ED
:101350000292029AD3F8E02042F00402C3F8E0209F
:10136000D3F8E02002F004020392039AD3F8E020BD
:1013700042F48072C3F8E020D3F8E02002F48072D7
:101380000492049AD3F8E02042F08002C3F8E020EF
:10139000D3F8E03003F080030593059B06B0704757
:1013A0000044025808B504480BF007FB034B012228
:1013B0001A60002008BD00BF11020010C0260010F6
:1013C00037B51F4D00242C700AF06CFA214601201D
:1013D0000AF09AFA08B100F02FFE1A4B1A491B487E
:1013E00000944FF0FF320AF049FB002801DA00F0C8
:1013F00023FE174B4FF48062186800210BF00CFAA3
:10140000144B4FF48062186800210BF005FA124B60
:101410004FF48062186800210BF0FEF90F4A002398
:1014200013602B7013600E4A13600E4A13600E4A4D
:1014300013700E4A13700E4B01221A7003B030BDA8
:1014400010020010A513100868D61008802600109E
:10145000100000100C00001008000010C026001042
:101460000C02001008020010060200100502001015
:101470000402001010B504465E4808F073FA2378A1
:10148000022B0CBF5C4A5D4A0323CB217B2008F072
:101490000FFB2378012B0CBF574A584A0323A7217F
:1014A0007B2008F005FB2278032AD3B24FF0EE012F
:1014B00016BF0323504A514A7B2008F0F9FA5048DE
:1014C00008F050FA6379002B7FD04E4A03233A216B
:1014D0003F2008F0EDFAA379002B79D0494A032385
:1014E0003A218E2008F0E4FAE379002B73D0454AC4
:1014F00003233A21DF2008F0DBFA2379002B6DD09B
:10150000404A03233A2140F22F1008F0D1FAE37A3F
:10151000002B66D03B4A03234FF4D671382008F0E5
:10152000C7FA637C002B5FD0364A03234FF4D67191
:1015300040F2111008F0BCFAA37C002B57D0314ABE
:1015400003234FF4D6714FF4AD7008F0B1FA94ED67
:10155000030A0AF0D5FDBCEEC00A2B492B4810EE59
:10156000103A9AB20BF046F80323284A4FF4D6718A
:10157000712008F09DFA227C254924480BF03AF8A6
:101580000323224A4FF4D671BF2008F091FAA27AC1
:101590001F491E480BF02EF803231C4A4FF4D67146
:1015A0004FF4167008F084FA22891949174892B24C
:1015B00001320BF01FF8BDE81040144A03234FF42A
:1015C000D6714FF4377008F073BA0C4A03237EE7E4
:1015D0000A4A032384E7094A03238AE7074A0323C5
:1015E00090E7064A032397E7044A03239EE7034A4A
:1015F0000323A6E7B40000107CD61008A3D6100879
:10160000BC000010C8D910087ED610081C26001097
:1016100082D61008014B01221A7070471002001088
:101620001FB503900948826A531C04D100F004FDE1
:1016300005B05DF804FB04230121CDE9003103ABC3
:10164000416A09F01DFD0028F2DAEFE7802600105C
:10165000014B01221A70704705020010034B044A27
:101660001960137883F00103137070470C020010A7
:101670000602001010B504460323104A40F2291157
:10168000C92008F015FA2378013B032B15D8DFE8B1
:1016900003F0020B0E110A4A0323BDE8104040F28A
:1016A0002911C92008F004BA064A0323F5E7064ABF
:1016B0000323F2E7054A0323EFE710BD86D610089F
:1016C000A5D61008B3D61008C5D61008D7D610086E
:1016D000082910B504461AD004D802291BD00429C1
:1016E0000BD010BD1029FCD10E480AF07BFF40F250
:1016F0000110BDE81040FFF793BF022303700A48B2
:101700000AF070FF2046BDE81040FFF7B3BF032387
:1017100003700648F4E706480AF064FF40F201202F
:10172000E7E700BF03D71008E9D61008F7D610087E
:1017300014D71008082910B5044619D004D8022976
:101740001AD004290BD010BD1029FCD10D480AF085
:1017500049FFBDE8104040F20140FFF761BF017052
:1017600009480AF03FFF2046BDE81040FFF782BF5E
:10177000012303700548F4E7BDE8104004480AF06F
:1017800031BF00BF3AD7100823D710082FD7100851
:1017900049D71008082910B5044609D851B10139B4
:1017A000072907D8DFE801F0221D06070606061103
:1017B00010290ED010BD012303700F480AF012FF4C
:1017C0002046BDE81040FFF755BF042303700B48C7
:1017D000F4E70B480AF006FF0A48BDE81040FFF79F
:1017E0001FBF09480AF0FEFE0848F6E708480AF05D
:1017F000F9FE0848F1E700BF2FD7100823D71008DB
:101800005AD710080BB04B7F6BD710080BB04A7F2C
:101810007ED710080BB0547F082910B5044609D8AC
:1018200051B10139072907D8DFE801F0221D060769
:101830000606061110290ED010BD032303700F48B1
:101840000AF0D0FE2046BDE81040FFF713BF022388
:1018500003700B48F4E70B480AF0C4FE0A48BDE8E1
:101860001040FFF7DDBE09480AF0BCFE0848F6E765
:1018700008480AF0B7FE0848F1E700BFF7D610089D
:10188000E9D610085AD710080BB04B7F6BD7100859
:101890000BB04A7F8AD710080BB0537F08B50448B5
:1018A0000AF0A0FEBDE8084040F20150FFF7B8BEC4
:1018B00096D710080378013B032B0BD8DFE803F021
:1018C00002040608FFF704BFFFF734BFFFF762BF4B
:1018D000FFF7A2BF704700002DE9F8438B4C237837
:1018E00043B18B480AF07EFE8A4B1A688A4B1A6015
:1018F00000232370894C237823B18948FFF7CEFF5A
:1019000000232370874B1B7833B1874C84482168B0
:10191000FFF7D0FF00232360844D2B680BB90AF03A
:10192000BDF82B68002B6FD081498248FFF7B9FCC6
:101930004238162800F2C481DFE810F0BF01BA0176
:1019400017002E01C201C201C201C201C201C201BF
:101950004400C201C201C2015B00C201DA00790188
:10196000C201C201C201C2019A0173497148FFF765
:10197000A5FC72490446820209684FF44E730020A8
:1019800002F092FE18B16E480AF02CFE3AE040F2E6
:1019900001300134FFF744FE21466A480AF0B2FDE7
:1019A00069496A4822460AF025FE694A032340F243
:1019B0002911C92008F07CF8644A032340F2291158
:1019C000C92013E05C495B48FFF778FC441C2146C2
:1019D00060480AF097FD60495C4822460AF00AFE1A
:1019E0005A4A03234FF4D6714FF4377008F060F869
:1019F00008E0DFF82481D8F80070002F32D1574872
:101A00000AF080FD00232B60554C237833B9554AEA
:101A100003233A2140F2622008F04AF82378042B8D
:101A20000ED1514D514E03F03BFB2B683060984274
:101A300006D04F494F4840220AF051F933682B60D5
:101A40002578022D40F03E81002002F033F8032378
:101A5000494A3A2140F2622008F02AF80423237010
:101A6000BDE8F8833C88DFF82C91E40864034FF468
:101A7000005322464946002002F016FE0646002882
:101A800081D1388800F007004FF44E72394609EBD7
:101A900080200AF092FF32462146304602F06AFE6C
:101AA00008B1364870E74FF400532246494602F029
:101AB0001BFE08B1324867E7D8F800303148198872
:101AC00001310AF01FFDD8F800302F491A881F484D
:101AD00001320AF08FFD1D4A032340F22911C9206B
:101AE00007F0E6FF4FF44E7128480AF00BFD89E736
:101AF00027480AF077FD164A032340F22911C9202E
:101B000007F0D6FF224A032358E700BF1002001057
:101B1000A6D710080C0000101806001005020010CF
:101B200004020010060200100C020010C026001073
:101B3000C5D7100811020010C9D7100810000010F6
:101B4000D2D71008DFD71008F4D710081C260010D1
:101B500086D6100808D8100882D6100825D8100894
:101B6000F82B0010F1DA1008C8260010C426001067
:101B7000CC260010FC2B0010C8D9100836D810084D
:101B800044D8100852D8100870D810088FD8100800
:101B9000ADD810081C060010544A032340F2291146
:101BA000C92007F085FF00210222084602F0E2FD6D
:101BB0000446002839D14E480AF014FD4B4A03234D
:101BC00040F22911C92007F073FF4A4A032340F26B
:101BD0002911C92007F06CFF474B48481E684FF495
:101BE000005221460AF018FE444B18464FF44E723C
:101BF00031460AF0E2FE0134082C00F58063F4D18E
:101C00003E4E3F4F00244FF4005322463146002001
:101C100002F06AFD10B138460AF0E4FC04F5005405
:101C2000B4F5004FEFD13748AEE63748ACE62F4A5F
:101C3000364C032340F22911C92007F039FF3449FB
:101C40003448FFF753FB0323024640F2291120607A
:101C5000C92007F02DFF0A200AF066FC20680AF070
:101C600051FC0A200AF060FC20680AF093FAC9E6E9
:101C700029492848FFF72FFB07EE900A9FED277AA6
:101C80009FED270AF8EE677A67EE877A87EE800A7B
:101C90000AF036FA23492448FCEEC07A17EE902A5F
:101CA0000AF0A8FC204A03233C214FF436709DE63D
:101CB0001E4B1868FFF7DEFBA4E60C4A03237DE603
:101CC0001B4861E6032D7FF4CBAE002001F002FF3C
:101CD0002B4640F26220174A3A2107F0E9FE002322
:101CE0002370BDE8F843144809F0D8BF86D6100821
:101CF000C1D81008D7D81008180600101C0600100C
:101D000044D81008ECD8100801D9100814060010A7
:101D10001BD910081102001022D910080000C84277
:101D20005535824929D910081C26001008000010DA
:101D300030D91008F1DA1008FC2B00102DE9F74F0C
:101D4000032001F0B7FE3948DFF8248109F0B9FF1C
:101D50004FF6FF79C0F38F06013EB6B24E4505D16E
:101D6000032003B0BDE8F04F01F0B4BE18F804AC96
:101D700018F803BC18F8024C18F8017C6AF3070540
:101D80006BF30F2564F3174567F31F6575B328469A
:101D9000FFF746FCC5F30323591C05F00F03083B6E
:101DA000062B3BD8DFE803F0040E3810252B31005A
:101DB0001F480AF0A7FB21461E480AF0A3FB1E4855
:101DC00039460EE01D48F4E71D480AF09BFB21460A
:101DD0001C480AF097FB39461B480AF093FB1B4846
:101DE00029460AF08FFB0A200AF09EFB08F104083E
:101DF000B2E717480AF086FB16482146F1E7164875
:101E00000AF080FB15482146EBE715480AF07AFBFB
:101E1000144804EBC711E4E71348CAE700972346C8
:101E20005A46514611480AF06DFBDFE7FC2B0010C3
:101E30004BD910085CD9100867D9100876D910085A
:101E400086D910089DD91008ABD91008B7D9100849
:101E5000CAD91008E1D91008EFD9100802DA100821
:101E600011DA100823DA10082FDA100844DA100803
:101E7000D026001008B5002001F0EEFD012001F091
:101E8000EBFD022001F0E8FD032001F0E5FD00205C
:101E900001F010FE012001F00DFE022001F00AFE0B
:101EA000032001F007FE4FF4967003F0FFF80020C6
:101EB00001F010FE012001F00DFE022001F00AFEEB
:101EC000BDE80840032001F005BE000010B5002069
:101ED00002F080FC044678B10C480AF083FB0C4801
:101EE00007F040FD4FF07F4007F02CFDBDE81040AB
:101EF0004FF0FF3007F02EBD06480AF073FB064B8B
:101F000022462146204601F0C5FFE8E76BDA1008BB
:101F1000BC0000108CDA10080000E8973D4B07B5B4
:101F2000D3F8E02042F00072C3F8E020D3F8E030AC
:101F300003F0007301200193019B04F0BBFC04F04B
:101F4000B1FF01220221002004F06AFF324B1B681E
:101F5000C3F30313072B314B0BBFD3F80421D3F882
:101F6000142142F0010242F001020CBFC3F8042127
:101F7000C3F8142103F03AF8FFF7D2F9FFF77AFF1C
:101F800000F0BCF800F0BCF90A200AF0CDFA2448B1
:101F90000AF028FB23480AF025FB21480AF022FB1F
:101FA0000121002001F0A6FD1F220121002001F0E7
:101FB000F5FD0121002002F055FB1B4807F092FCC3
:101FC00009F092FD00F03EF8FFF780FF00F07CF88A
:101FD000FFF7F6F900220A21402003F08DF8402097
:101FE00003F0BCF80A200AF09FFA10480AF0FAFA47
:101FF0000F480AF0F7FA0F480AF0F4FA0B480AF013
:10200000F1FA0A200AF090FA09F08EFDFFF764FC5D
:10201000FAE700BF0044025800ED00E000640258F7
:10202000C9DA1008A9DA100834DE1008C6DA100878
:10203000F3DA100820DB100808B572B6022001F0B0
:1020400039FDFEE710B586B040F20313ADF800305D
:102050006946402300208DF8023002F0ADFC10F0FC
:10206000FF0404D014480AF0BDFA06B010BD1348AE
:102070000AF0B8FA01A92046CDE90144CDE90344AC
:10208000059402F09BFB019BB3F1006F0FD1029B03
:10209000B3F5005F0BD1049BB3F5807F07D1039BA1
:1020A000B3F5804F03D1059BB3F5002F01D0044851
:1020B000D9E70448D7E700BF4ADB100867DB100800
:1020C00080DB100897DB100808B5094805F0C9F94E
:1020D000002002F09BFB48B106480AF083FA00207A
:1020E00002F0C4FBBDE80840FFF7ACBF0248F4E7CC
:1020F000C4290010AADB1008D3DB100800B58BB090
:102100002822002168460AF087FB1448144A00235D
:10211000C0E900237F21FF22C0E90212C0E9063393
:102120000361436106F0A0FA08B1FFF785FF0123C0
:10213000009302930023CDE90333CDE90533CDE9C4
:102140000733064880236946099306F0D9FA08B197
:10215000FFF772FF0BB05DF804FB00BF0C27001007
:102160000040005810B50446B2B0C82200216846AD
:102170000AF052FB22680C4B9A4212D100234FF412
:102180008002CDE9002368464FF400732E9305F0DA
:1021900099FB08B1FFF750FF044A136F43F4004363
:1021A000136732B010BD00BF004000580044025811
:1021B0000C4B07B5D3F8F42042F00202C3F8F42028
:1021C000D3F8F43003F002030193002206217E20AD
:1021D000019B02F091FF7E2003B05DF804EB02F05A
:1021E000BDBF00BF0044025808B505F06DFAFEE718
:1021F000FEE7FEE7FEE7FEE770477047704702F034
:1022000043BF0121002001F049BD0221002001F05F
:1022100045BD0421002001F041BD08B50821002082
:1022200001F03CFDBDE808401021002001F036BD62
:10223000002001F0A5BC002002F0A8BE014803F078
:10224000D3BE00BFD42F001004F03CBBFFF7E2B9AF
:102250000120704708B50AF083FB162303604FF096
:10226000FF3008BD08B50AF07BFB16230360FEE7CC
:1022700070B50D4614460E46731B9C4201DC204689
:1022800070BDAFF3008006F8010BF5E770B50D46A1
:1022900014460E46731B9C4201DC204670BD16F8A6
:1022A000010B00F0A9F8F5E74FF0FF3070474FF44D
:1022B00000534B600020704701207047002070479A
:1022C0000B4A116810B5034609B90A491160106834
:1022D00009490A4C0344091B8B4206D90AF040FB0A
:1022E0000C2303604FF0FF3010BD1360FCE700BF0C
:1022F0003027001028340010008004100010000067
:102300001648174A08B54FF4E133C0E9002300230B
:102310000C22C0E90233C0E90523C0E90733C0E954
:102320000933036106F0BCFD08B1FFF785FE0B48D9
:10233000002106F022FE08B1FFF77EFE07480021CB
:1023400006F03BFE08B1FFF777FE044806F0FAFD01
:1023500018B1BDE80840FFF76FBE08BD3427001074
:102360000010014010B5BAB004461422002103A8A1
:102370000AF052FAC822002108A80AF04DFA226891
:102380001A4B9A4230D10122002308A8CDE9082334
:1023900005F098FA08B1FFF74FFE154B1548D3F832
:1023A000F02042F01002C3F8F020D3F8F02002F041
:1023B00010020192019AD3F8E02042F00102C3F822
:1023C000E020D3F8E03003F001030293029B4FF4C6
:1023D000C0620223CDE903230023CDE9053303A91D
:1023E0000723079303F080FB3AB010BD00100140B3
:1023F000004402580000025807B54FF47A73019068
:10240000012201A9034806F09BFC019803B05DF886
:1024100004FB00BF34270010DFF834D0FEF772FF52
:102420000C480D490D4A002302E0D458C45004332F
:10243000C4188C42F9D30A4A0A4C002301E0136005
:102440000432A242FBD30AF091FAFFF767FD70470E
:102450000080041000000010E80100103CFA100891
:10246000E801001024340010FEE7000008B5084B16
:102470000122C3E900219A600022DA6019464FF672
:10248000FF7206F0C9F9003818BF0120404208BDAC
:10249000C827001008B5094B0222C3E90021012119
:1024A0000022C3E902124FF6FF72194606F0B4F992
:1024B000003818BF0120404208BD00BFC8270010E7
:1024C0000A46D1E903310B4351690B4391690B4330
:1024D000D16912680B43084910B54A600122C1E96D
:1024E000022304244FF6FF720C6006F095F90038C1
:1024F00018BF0120404210BDC827001008B5084B86
:10250000C3E9002108210022C3E902124FF6FF723D
:10251000194606F081F9003818BF0120404208BD75
:10252000C827001008B506F095F9003818BF01203B
:10253000404208BD70B50C4609680546FFF796FF96
:1025400010B14FF0FF3070BD02F0AAFD064602F058
:10255000A7FD8642FBD021682846FFF79BFF002895
:10256000EFD1D4E900122846FFF7C8FF0028E8D1D0
:1025700021462846FFF7A4FF0028E2D1A16828469B
:10258000FFF7D0FF003818BF01204042DBE74FF0D3
:1025900000624FF40053C0E900234FF480714FF400
:1025A0008043C0E902314FF40023036100207047EB
:1025B00000B595B04FF440730C93052306930023A8
:1025C000CDE90D33CDE91133139300930493102318
:1025D00002934FF040724FF480030F920593022252
:1025E00040F201130B920193039241F288336A4641
:1025F00006A904F0A5FE002814BF6FF00400002017
:1026000015B05DF804FB30B5032995B00CBF4FF44D
:1026100040734FF480730C9306230C46069341F2EB
:102620008832002306A9CDE90D33CDE911330546E3
:102630000F930B93139304F081FD18BB40F2022318
:10264000CDE9003302221023032CCDE902324FF4EE
:1026500080014FF00503CDE9051314BF4FF08073DF
:102660004FF0407304900F936A4641F2883306A9F5
:10267000284604F065FE002814BF6FF00400002017
:1026800015B030BD6FF00100FAE730B503298FB007
:102690000CBF4FF440734FF480730693B72300933D
:1026A0000023CDE90733CDE90B3304460D460993EA
:1026B00005930D93FFF7A7FF18B16FF001000FB05E
:1026C00030BD41F288326946204604F037FD0028CB
:1026D000F3D129462046FFF76BFF0028EFD0ECE747
:1026E00030B504468FB0154603290ED8DFE801F057
:1026F000022D38434FF480720692022200924FF46A
:10270000806207924FF0807209924FF44052019319
:10271000129B03920A9341F28832002369462046B5
:10272000CDE90B33089305930D9304F007FD38BBF7
:1027300041F288322946204604F046FD002814BFA5
:102740006FF0020000200FB030BD4FF4807206928F
:10275000D22200924FF4006207924FF00072D3E74A
:102760004FF480720692382200924FF44062079232
:102770004FF04072C8E74FF4407206923422F3E7FC
:102780006FF00100DFE730B504468FB0154603292E
:102790000ED8DFE801F002323D484FF48072069215
:1027A0000E2200924FF4806207924FF080720992DD
:1027B000082205924FF440520392129A0A924FF067
:1027C00000404FF08042CDE90B02019341F2883284
:1027D00000236946204608930D9304F0AFFC38BBF4
:1027E00041F288322946204604F04AFD002814BFF1
:1027F0006FF0030000200FB030BD4FF480720692DE
:102800003D2200924FF4806207924FF00072CEE7B3
:102810004FF480720692EE2200924FF440620792CB
:102820004FF04072C3E74FF440720692ED22F3E797
:102830006FF00100DFE730B504468FB0154603297D
:102840000ED8DFE801F0022E39444FF48072069270
:102850000C2200924FF4806207924FF0807209922E
:10286000082205924FF440520392129A01930023DA
:10287000CDE90A23694641F288322046CDE90C337E
:10288000089304F05BFC38BB41F2883229462046AD
:1028900004F0F6FC002814BF6FF0030000200FB016
:1028A00030BD4FF480720692BC2200924FF4006259
:1028B00007924FF00072D2E74FF480720692EC223A
:1028C00000924FF4406207924FF04072C7E74FF416
:1028D00040720692EB22F3E76FF00100DFE700B5EC
:1028E00003298FB014BF4FF480734FF440730693E5
:1028F000C723009341F2883200236946CDE90733AC
:10290000CDE90B33099305930D9304F017FC0028D0
:1029100014BF6FF0010000200FB05DF804FB70B52C
:10292000022B8EB005460E4633D0032B2CD0012B44
:102930000CBF52232123032E00930CBF4FF440738E
:102940004FF4807306934FF4406307934FF4405362
:102950000393314600232846CDE90833CDE90B33F4
:10296000019205930D93FFF74EFE41F288326946BE
:10297000284604F0E3FB044668B931462846FFF7D1
:1029800017FE20460EB070BD0EB0BDE87040FFF7D8
:10299000A6BFDC23CFE76FF00100F3E700B58FB0EF
:1029A0004FF4807306933523009341F2883200235D
:1029B0006946CDE90733CDE90B33099305930D93B0
:1029C00004F0BCFB002814BF6FF0010000200FB022
:1029D0005DF804FB00B58FB04FF480730693F523C8
:1029E000009341F2883200236946CDE90733CDE9EF
:1029F0000B33099305930D9304F0A0FB002814BF3B
:102A00006FF0010000200FB05DF804FB00B591B03D
:102A100003290ED8DFE801F00229343F4FF4807318
:102A200008930E2302934FF4806309934FF0807351
:102A30000B93082207924FF0004C4FF440534FF095
:102A40008042CDE90DC205936A46002302A9CDE973
:102A500000330A930F9304F0C4FC002814BF6FF0F6
:102A60000500002011B05DF804FB4FF4807308935B
:102A70003D2302934FF4806309934FF00073D7E72F
:102A80004FF480730893EE2302934FF4406309934D
:102A90004FF04073CCE74FF440730893ED23F3E716
:102AA00000B591B003290ED8DFE801F00225303BD4
:102AB0004FF4807308930C2302934FF480630993BF
:102AC0004FF080730B93082307934FF44053059303
:102AD0006A46002302A9CDE90D33CDE900330A93FC
:102AE0000F9304F07EFC002814BF6FF00500002057
:102AF00011B05DF804FB4FF480730893BC2302937C
:102B00004FF4006309934FF00073DBE74FF48073D9
:102B10000893EC2302934FF4406309934FF0407302
:102B2000D0E74FF440730893EB23F3E700B5032994
:102B30008FB014BF4FF480734FF440730693662335
:102B4000009341F2883200236946CDE90733CDE98D
:102B50000B33099305930D9304F0F0FA002814BF8A
:102B60006FF0010000200FB05DF804FB00B50329F1
:102B70008FB014BF4FF480734FF4407306939923C2
:102B8000009341F2883200236946CDE90733CDE94D
:102B90000B33099305930D9304F0D0FA002814BF6A
:102BA0006FF0010000200FB05DF804FB4FF0FF3024
:102BB00070470000024B9B680B600020704700BF0D
:102BC000D8270010024B1B680B600020704700BF25
:102BD000D8270010054B1B68002B0CBF4FF4F07377
:102BE0004FF448730B600020704700BFD8270010D7
:102BF000054B1B68002B0CBF4FF448734FF4F07368
:102C00000B600020704700BFD82700104FF0FF3046
:102C100070474FF0FF3070474FF0FF3070474FF074
:102C2000FF3070474FF0FF3070474FF0FF30704774
:102C300010B484680088A4465DF8044B604710B463
:102C400044680088A4465DF8044B604713B5C1EBA7
:102C5000012364220C46B3FBF2F351218DF80730B7
:102C60000DF107020023103000F033FA18B9034BBE
:102C70009C6002B010BD4FF0FF30FAE7D82700107B
:102C800007B500230DF10702292110308DF8073018
:102C900000F01FFA003818BF0120404203B05DF871
:102CA00004FB07B500230DF10702282110308DF831
:102CB000073000F00EFA003818BF0120404203B080
:102CC0005DF804FBF7B56023002701290E468DF857
:102CD00006308DF8077037D800F110053B461CD13F
:102CE0000DF106020B21284600F0F3F9184A0446BC
:102CF00004232A21284600F0ECF9164A0444042350
:102D00002B21284600F0E5F920440038124B18BF6B
:102D100001201E60404203B0F0BD0DF107023621D4
:102D2000284600F0D6F90D4A044604232A212846F5
:102D300000F0CFF90A4A044404232B21284600F06E
:102D4000C8F93E462044E0E74FF0FF30E3E700BF1C
:102D500055DC100850DC1008D827001061DC100882
:102D60005CDC100808B50A460123DB21103000F0B6
:102D7000A9F9003818BF0120404208BD4FF0FF30CC
:102D800070474FF0FF30704770B5C36804460D467A
:102D900098470646E3689847831BAB42FAD370BD59
:102DA0002DE9F04100F11005074690460523924AAF
:102DB0000E462846F02100F08CF9904A0446032381
:102DC000B021284600F085F98D4A04440323B6213A
:102DD000284600F07EF98B4A04440323B12128469B
:102DE00000F077F9884A04440323B721284600F00D
:102DF00070F9864A04440323B221284600F069F999
:102E0000834A04440323B821284600F062F9814A2A
:102E100004440123BF21284600F05BF97E4A0444A4
:102E20000323B321284600F054F97C4A04440323C9
:102E3000B921284600F04DF9794A04440323B5210D
:102E4000284600F046F9774A04440323BA2128466D
:102E500000F03FF9744A04440323BC21284600F0E3
:102E600038F9724A04440323BD21284600F031F9A1
:102E70006F4A04440223BE21284600F02AF96D4A15
:102E800004440523F021284600F023F96A4A04444B
:102E90000223B121284600F01CF9684A04440123AA
:102EA000B621284600F015F9654A04440123B521EE
:102EB000284600F00EF9634A04440223B72128464D
:102EC00000F007F9604A04440423B821284600F0C2
:102ED00000F95E4A04440323BC21284600F0F9F8B7
:102EE0005B4A04440323CC21284600F0F2F8BA21BF
:102EF0000444584A0123284600F0EBF8C821044452
:102F00003846FFF741FFB8F1000F5BD1524A434604
:102F10003621284600F0DDF8504A044404232A21D3
:102F2000284600F0D6F84E4A044404232B212846B4
:102F300000F0CFF800234B4A04441121284600F04A
:102F4000C8F8142104443846FFF71EFF022E4FF044
:102F5000000348D1444A3A21284600F0BAF8044414
:102F6000424B434A5E6051210023284600F0B1F8ED
:102F7000404A044400235321284600F0AAF83E4A60
:102F8000044400235521284600F0A3F83B4A04449A
:102F900000235E21284600F09CF8394A04440023AF
:102FA0002921284600F095F8364A044400232C21B4
:102FB000284600F08EF8C44214BF4FF0FF300020C6
:102FC000BDE8F081304A00233621284600F081F820
:102FD0002E4A044404232A21284600F07AF82C4A79
:102FE00004440423A2E72B4A3A21284600F071F852
:102FF00000260444B4E700BF4BDC100848DC10088E
:1030000045DC100842DC10083FDC10083CDC1008EE
:1030100039DC100837DC100834DC100831DC10080B
:103020002EDC10082BDC100828DC100825DC10082A
:1030300023DC10081EDC10081CDC10081ADC100849
:1030400018DC100816DC100812DC10080FDC100861
:103050000CDC10080ADC100867DC100861DC1008C2
:103060005CDC100809DC100807DC1008D827001009
:1030700003DC100801DC1008FFDB1008FDDB100882
:10308000FBDB1008F9DB10085BDC100855DC1008CE
:1030900050DC100805DC100860B14B6843608B6899
:1030A0008360CB68C360054B4361054B036180615E
:1030B000002070474FF0FF30704700BF312C1008E0
:1030C0003F2C100810B4D0E90140A4465DF8044B31
:1030D000604710B404688068A4465DF8044B6047FC
:1030E0004FF0FF3070470000024B9B680B600020E0
:1030F000704700BFE4270010024B1B680B600020E4
:10310000704700BFE4270010054B1B68002B0CBF65
:103110004FF4F0734FF448730B600020704700BF0A
:10312000E4270010054B1B68002B0CBF4FF44873BD
:103130004FF4F0730B600020704700BFE4270010CD
:103140004FF0FF3070474FF0FF3070474FF0FF30C7
:1031500070474FF0FF3070474FF0FF3070474FF02F
:10316000FF30704710B484680088A4465DF8044BB3
:10317000604710B444680088A4465DF8044B60477B
:1031800013B5C1EB012364220C46B3FBF2F35121CA
:103190008DF807300DF107020023103000F055FCC8
:1031A00018B9034B9C6002B010BD4FF0FF30FAE736
:1031B000E427001007B500230DF107022921103084
:1031C0008DF8073000F041FC003818BF0120404264
:1031D00003B05DF804FB07B500230DF107022821B9
:1031E00010308DF8073000F030FC003818BF012097
:1031F000404203B05DF804FBF7B5602300270129C6
:103200000E468DF806308DF8077037D800F110059E
:103210003B461CD10DF106023621284600F015FC74
:10322000184A044604232A21284600F00EFC164AB8
:10323000044404232B21284600F007FC20440038D6
:10324000124B18BF01201E60404203B0F0BD0DF1CB
:1032500007023621284600F0F8FB0A4A04460423F8
:103260002A21284600F0F1FB074A044404232B21BD
:10327000284600F0EAFB3E462044E0E74FF0FF30EE
:10328000E3E700BFABDD1008A7DD1008E42700105E
:1032900008B50A460123DA21103000F0CFFB0038D0
:1032A00018BF0120404208BD4FF0FF3070474FF07B
:1032B000FF30704770B5C36804460D469847064610
:1032C000E3689847831BAB42FAD370BD2DE9F34105
:1032D000002300F1100507460E4690461946DE4AC7
:1032E000284600F0B2FBDD4A04460323FF212846AE
:1032F00000F0ABFB00231946D94A0444284600F0ED
:10330000A4FBD84A04440223FF21284600F09DFB79
:1033100000231946D24A0444284600F096FBD24ABC
:1033200000230444C421284600F08FFB0A210444F2
:103330003846FFF7BFFF00231946CC4A284600F065
:1033400084FBCB4A00230444C421284600F07DFBC3
:103350000A2104443846FFF7ADFF00231946C54A49
:10336000284600F072FBC44A04440023C5212846C5
:1033700000F06BFB00231946C04A0444284600F0C5
:1033800064FBBF4A04440023C521284600F05DFBCE
:1033900000231946BB4A0444284600F056FBBA4AAB
:1033A00004440023C021284600F04FFB00231946A7
:1033B000A94A0444284600F048FBB44A04440023C8
:1033C000D921284600F041FB00231946B04A0444A5
:1033D000284600F03AFBAF4A04440023C1212846A6
:1033E00000F033FB00231946AB4A0444284600F0A2
:1033F0002CFBAA4A04440023C121284600F025FBE7
:1034000000231946A64A0444284600F01EFBA54A9C
:1034100004440023C521284600F017FB0023194669
:10342000A14A0444284600F010FB954A04440023B6
:10343000C521284600F009FB00231946864A0444AA
:10344000284600F002FB994A04440223D82128466A
:1034500000F0FBFA00231946954A0444284600F080
:10346000F4FA944A04440023C521284600F0EDFAFA
:1034700000231946904A0444284600F0E6FA8F4A91
:1034800004440023C021284600F0DFFA0023194637
:103490008B4A0444284600F0D8FA8A4A04440023A0
:1034A000C521284600F0D1FA00231946784A044481
:1034B000284600F0CAFA844A04440023C42128465E
:1034C00000F0C3FA00231946734A0444284600F06A
:1034D000BCFA7E4A04440023C121284600F0B5FA14
:1034E000002319467A4A0444284600F0AEFA794A85
:1034F00004440223B321284600F0A7FA002319460A
:10350000574A0444284600F0A0FA734A04440623AC
:10351000CE21284600F099FA002319466F4A044448
:10352000284600F092FA6E4A04440E23CE21284623
:1035300000F08BFA002319466A4A0444284600F03A
:1035400084FA694A04440E23CE21284600F07DFA0D
:1035500000231946654A0444284600F076FA644A76
:1035600004440A23CF21284600F06FFA00231946AD
:10357000604A0444284600F068FA5F4A0444002385
:10358000CF21284600F061FA00231946344A04444A
:10359000284600F05AFA594A04440A23CB21284607
:1035A00000F053FA00231946554A0444284600F017
:1035B0004CFA544A04440F23CB21284600F045FA24
:1035C00000231946454A0444284600F03EFA4E4A74
:1035D00004440F23CB21284600F037FA0023194674
:1035E000404A0444284600F030FA484A04440A237A
:1035F000CB21284600F029FA002319463B4A04440F
:10360000284600F022FA424A04440F23CB212846E0
:1036100000F01BFA00231946364A0444284600F0FD
:1036200014FA3C4A04440F23CB21284600F00DFA3B
:1036300000231946384A0444284600F006FA374A5F
:1036400004440A23CB21284600F0FFF90023194641
:10365000334A0444284665E075DD100871DD100822
:1036600076DD10086FDD100877DD100878DD1008B2
:1036700079DD10087ADD10087BDD10087CDD10088C
:103680007DDD10087EDD10087FDD100880DD10086C
:1036900081DD100882DD100883DD100884DD10084C
:1036A00085DD100886DD100887DD10086DDD100847
:1036B00088DD100889DD10088ADD10088BDD100810
:1036C0008CDD10088DDD10088EDD10088FDD1008F0
:1036D00090DD10086BDD100865DD100891DD100825
:1036E00057DD100892DD100849DD100893DD100841
:1036F0003FDD100894DD1008A1DD100835DD10084D
:1037000095DD100826DD100817DD10080DDD100806
:10371000FEDC1008EFDC100896DD1008E5DC100870
:1037200097DD100800F091F9964A04440A23CB2152
:10373000284600F08AF900231946934A0444284693
:1037400000F083F9914A04440A23CC21284600F072
:103750007CF9002319468E4A0444284600F075F986
:103760008C4A04440F23CC21284600F06EF9002334
:103770001946894A0444284600F067F9874A0444F8
:103780000F23CC21284600F060F900231946844A13
:103790000444284600F059F9824A04440A23CC2103
:1037A000284600F052F9002319467F4A044428466F
:1037B00000F04BF97D4A04440F23CC21284600F049
:1037C00044F9002319467A4A0444284600F03DF99A
:1037D000784A04440F23CC21284600F036F9002310
:1037E0001946754A0444284600F02FF9734A0444E8
:1037F0000023C521284600F028F900231946704A05
:103800000444284600F021F96E4A04440023F521BF
:10381000284600F01AF9002319466B4A044428464A
:1038200000F013F9694A04440023C621284600F039
:103830000CF900231946664A0444284600F005F9AD
:10384000644A04440323FF21284600F0FEF80023C5
:1038500019465F4A0444284600F0F7F80023194649
:103860005B4A0444284600F0F0F85B4A0444102305
:10387000E121284600F0E9F800231946544A04449F
:10388000284600F0E2F8554A04441023E221284675
:1038900000F0DBF8524A044400231121284600F0CE
:1038A000D4F8782104443846FFF704FD4D4F002E2C
:1038B00061D0022E07D14C4A00233A21284600F05D
:1038C000C4F87E600444B8F1010F57D160238DF82D
:1038D00007300DF1070200233621284600F0B5F825
:1038E000424A261804232A21284600F0AEF8404A0E
:1038F000064404232B21284600F0A7F8C7F80080CF
:1039000034183C4A00235121284600F09EF8002636
:103910003346394ABE6004445321284600F095F8E6
:103920003346364A04445521284600F08EF8334683
:10393000334A04445E21284600F087F83346314A72
:1039400004442921284600F080F833463146204AB5
:103950000444284600F079F82B4A044433462C21CD
:10396000284600F072F8C44214BF4FF0FF303046D2
:1039700002B0BDE8F081254A33469EE700233B6054
:10398000BFE700BFDBDC100876DD1008D1DC1008D3
:1039900095DD1008C2DC100891DD1008B3DC1008BA
:1039A00092DD1008A9DC100893DD10089ADC1008DD
:1039B00094DD10088BDC100881DD1008A2DD1008F2
:1039C000A3DD1008A4DD1008A5DD1008A6DD100891
:1039D00075DD100888DC100878DC100868DC100839
:1039E00098DD1008E427001099DD1008ABDD100801
:1039F000A7DD10089BDD10089CDD10089DDD100878
:103A00009EDD10089FDD1008A0DD10089ADD10086B
:103A100060B14B6843608B688360CB68C360054BC3
:103A20004361054B03618061002070474FF0FF3018
:103A3000704700BF653110087331100810B4D0E929
:103A40000140A4465DF8044B604710B404688068E8
:103A5000A4465DF8044B6047134B70B5D3F8E020E3
:103A600042F48072C3F8E020D3F8E03086B003F46B
:103A700080730093009B0D4B53F820600196032345
:103A800004930B4B53F82050012401A92846CDE99B
:103A9000024402F029F828462246B1B202F0A6F903
:103AA000002006B070BD00BF0044025814DE1008AC
:103AB00024DE100808B5054B33F82010044B002213
:103AC00053F8200002F092F9002008BD14DE10081F
:103AD00024DE100808B5054B33F82010044B0122F2
:103AE00053F8200002F082F9002008BD14DE10080F
:103AF00024DE10081D4B70B5D3F8E02042F004021C
:103B0000C3F8E020D3F8E03086B003F0040300935C
:103B1000009B4FF40053019300250223CDE903538A
:103B2000064639B90291124801A901F0DDFF0020D3
:103B300006B070BD0F4C0E484FF4881301A904EB7A
:103B4000C604029301F0D0FF0B49204601F0A9FF03
:103B500029460A4A204601F09DFF2A460F212820C7
:103B600001F0CAFA282001F0F9FAE0E7004402580F
:103B7000000802581C2800100D007016913B100818
:103B8000024B03EBC00001F092BF00BF1C280010E5
:103B900008B50020FDF75CFD08BD00002DE9F043ED
:103BA0001546354A13682B438BB080460E4613608A
:103BB00000244FF0010909FA04F3AB4325D1B8F111
:103BC000000F22D12D4BD3F8E02042F48062C3F8DD
:103BD000E020D3F8E03003F48063032C25D8DFE83D
:103BE00004F0021B1E210093009B254B33F8143078
:103BF000059301220323CDE90723224B53F8240028
:103C0000B6B905A9069601F06FFF0134052CD2D193
:103C100000200BB0BDE8F0830193019BE5E7029320
:103C2000029BE2E70393039BDFE70493049BDCE73B
:103C30004FF4441305A9144F069301F055FF134B9D
:103C400007EBC40753F82410384601F02AFF104B45
:103C5000002153F82420384601F01CFF0D4B33F9A6
:103C600014700D4B384653F82410002201F044FA2A
:103C7000384601F073FAC8E71828001000440258CB
:103C8000F6DD100800DE1008F0270010D8DD10085F
:103C9000C4DD1008ECDD1008B0DD100840B991FA61
:103CA000A1F10448B1FA81F100EBC10001F0FFBEBF
:103CB000704700BFF027001008B510210020FDF765
:103CC000CDFC08BD08B508210020FDF7C7FC08BDE4
:103CD00008B504210020FDF7C1FC08BD08B502218C
:103CE0000020FDF7BBFC08BD08B501210020FDF751
:103CF000B5FC08BD01F0D4B910B9034B9960704709
:103D00006FF00100704700BF6828001018B9034B1E
:103D1000DB680B6070476FF0010070476828001087
:103D200040B9064B1B685B6C13B1054B1B680B60FD
:103D3000002070476FF00100704700BFB4290010E9
:103D40006828001040B9064B1B689B6C13B1054BEB
:103D50005B680B60002070476FF00100704700BF88
:103D6000B429001068280010F0B50C4E1C246043E4
:103D700034183427A5680A4C305807FB054400FB6B
:103D80000212A16CE56D21B955F822201A600020BD
:103D9000F0BD35F8122092B2F8E700BF6828001095
:103DA00084280010F0B50B4E1C24604334183427CF
:103DB000A568094C305807FB054400FB0212A16CB2
:103DC000E56D19B945F822300020F0BD9BB225F809
:103DD0001230F9E768280010842800102DE9F74F09
:103DE0001D460D9BDFF848B003EB02090C9B06460D
:103DF0000F46144603EB010A4C4515D04FF01C0842
:103E0000394608FB06F80BE02B6801912246304644
:103E1000FFF7C8FF0BEB080301991B6901311D4433
:103E20005145F1D10134E7E7002003B0BDE8F08F40
:103E3000682800101FB5CDE9011206210091014646
:103E4000054801F0A8FD002814BF6FF0070000200E
:103E500005B05DF804FB00BF94290010012B13B5D9
:103E60000ED8D35C009315220B460146084801F09A
:103E700021FD18B16FF0070002B010BD0020FBE774
:103E8000CDE9001201463922014801F024FDF0E796
:103E9000942900102DE9F04F1C25374E9C8BD3F848
:103EA0000AC0D3F812B0D3F8169045437719755964
:103EB00005FB02123D693149BF684FF0340E0EFB1D
:103EC000071185B0CF6D05FB0277A4F12002072A08
:103ED0001CD9A4F11002082A34BF4FF0020A4FF097
:103EE000010AE4080BFB04F409F1FF3204FB02C2EF
:103EF0009D18634203931C234FF0000803FB0066E8
:103F0000C84506D1002005B0BDE8F08F4FF0000A8B
:103F1000E7E7F3681A4C9A1E534253415B004FF493
:103F20008032C4E901230023C4E9113AE360E36469
:103F3000FF22144B22652046236001F084F988B9E2
:103F40000121204601F054FA60B9012300933A465A
:103F50005B462946204601F0B3F918B932212046C4
:103F600001F0C8F93368326902FB0377039B08F15B
:103F700001081D44C4E700BF682800108428001011
:103F80002C290010001000522DE9F3411E46274B4A
:103F90000C461C2101FB00331546DB68022BDDE9D2
:103FA00008273ED1C7F3451040F2031EC7F3C421D2
:103FB00040F20F2C0EFB00F00CFB01F12130173109
:103FC000800907F01F07890900020CFB07F7173764
:103FD00040EA014040EA971040F07F47DFF8548004
:103FE0004FF44031C8E901134046114BC8F80C208A
:103FF000C8F8003001F027F9A8B90121404601F0C6
:10400000F7F980B900962B4622463946404601F022
:1040100057F940B91921404602B0BDE8F04101F01E
:1040200069B90023DAE702B0BDE8F0816828001022
:10403000001000522C290010F7B51C46104E1C230E
:1040400043430D46F118F3588F680E690D494FF040
:10405000340C0CFB071102FB0352C96D06FB021165
:104060002A19934238BF5C1B089B019300250095D9
:1040700001232246FFF788FF284603B0F0BD00BFAA
:104080006828001084280010F0B51C244443104E0A
:1040900035193459AF6885B002FB041629690391BC
:1040A0000C496D684FF0340C0CFB0711039FC96D70
:1040B00007FB0611D618AE4288BFAB1A013C0A9A1C
:1040C000019200940122FFF75FFF002005B0F0BDD0
:1040D0006828001084280010F7B514461A461C23DF
:1040E00043430C4EF518F3582E6904FB0314A968DA
:1040F000094D342707FB01559B1AE96D099D009373
:104100000195089B06FB0411FFF73EFF002003B05A
:10411000F0BD00BF6828001084280010164B70B551
:10412000D3F8E020154C42F04002C3F8E020D3F869
:10413000E03086B003F04003009308250126009B81
:104140000396032301A920460493CDE9015601F00B
:10415000CBFC29460022204601F048FE142000F046
:10416000A5FF32462946204601F040FE0A2000F015
:104170009DFF06B070BD00BF0044025800180258F1
:104180002DE9F0414FF0A0441E4600239EB0C0E947
:104190000043904601240422C0E902240F464FF058
:1041A000640C05226946CDE900C20546029301F080
:1041B0009DF9002858D12D4BCDF84C801978002955
:1041C0000CBF23460023CDE903064FEA0323284E04
:1041D00005934FF224424FF00203CDE9063702FB6C
:1041E00007664FF0000346F62532B6FBF2F60BBF2A
:1041F00096220F221046102008BF78249942CDE95C
:1042000011204FF400410CBF40220422CDE91412CA
:1042100016924FF4005E4FF48052CDE917E24FF44E
:1042200000684FF48062CDE9198240F6FF774FF4C1
:1042300000714FF48072CDE90837CDE91B124FF0C1
:10424000040C4D2703A92846CDE90A33CDE90DC753
:10425000CDE90F640C931D9301F0FCF9003818BFF1
:1042600001201EB0BDE8F0812046FAE76428001066
:10427000D8C14200F0B4154C0023C0E90043144CEF
:104280000361247801F12306C0E902334531BCB94A
:1042900002F20D14772302F2A31240F20D1501274A
:1042A0008361002347618386232780F83630C76106
:1042B000466205628462C162F0BC026302F098BB90
:1042C00002F10F040F251F32E9E700BF0010005074
:1042D00064280010F0B58FB0176896685468D368EA
:1042E000156905955269029400254FF0FF0CCDE940
:1042F00006C504934FF4C06E4FF0070C0A929B1B47
:104300000A46E41B01A9CDE908EC019703960B943A
:104310000C93ADF834508DF8365002F0D5FB0FB049
:10432000F0BD00B54FF00052B3B00023CDE900233B
:1043300005228423CDE90A230223CDE90C33182179
:104340004FF40063CDE90E1368460023CDE9103326
:1043500003F0B8FA33B05DF804FB00002DE9F04F2C
:10436000012993B0054688461E4600F25381002875
:1043700040F05081531E012B00F24C81022AA74CC1
:10438000A74F0BBF034605231146042101934FF0AD
:1043900000001C9B7B6008BF1546C7E903213E60F7
:1043A000FFF7BCFED4F8E0209E4842F40072C4F847
:1043B000E020D4F8E02002F400724FF000094FF042
:1043C000010A02234FF4805B05920CA9CDE90E93FC
:1043D000CDE90CBA059A01F087FB5246594691483F
:1043E00001F004FDD4F8E0108E4841F40071C4F8E7
:1043F000E010D4F8E01001F4007106910223069950
:104400000F934FF0040B0CA9CDE90CB901F06CFB34
:1044100052468448DFF838A2594601F0E7FC4A4684
:104420000F21582000F068FE582000F097FE4A4601
:104430000F215A2000F060FE5A2000F08FFE4A46FD
:104440000F217B2000F058FE7B2000F087FE764A8B
:10445000CAF80020754A7649DFF8F89111604FF0EC
:10446000A042C9F80020D4F8E420019B42F00802E1
:10447000C4F8E420D4F8E42002F008020492049A7C
:10448000D4F88C2042F00802C4F88C20D4F88C2098
:1044900022F00802C4F88C20D4F8D42042F0100294
:1044A000C4F8D420D4F8D42002F010020392039A66
:1044B000E26F42F01002E267E26F22F01002E26760
:1044C000D4F8E42042F01002C4F8E420D4F8E42048
:1044D00002F010020292029AD4F88C2042F01002EC
:1044E000C4F88C20D4F88C2022F01002C4F88C2060
:1044F0001C9A31464846FFF743FE28B16FF003048B
:10450000204613B0BDE8F08F5046FFF70AFF0028A1
:10451000F4D11C9A31465046FFF7ACFE0028EDD18D
:1045200000F034FC04460028E8D11C9B0E90CDE935
:104530000C06CDE90F3501464FF050430CAA50460A
:104540001193FFF7C7FE002861D14846394EDFF8C6
:1045500008A101F08CF95946484601F077F9DFF8D7
:10456000FC90DFF8FCB0079408A93046ADF8204075
:10457000CDF82C90CDF824A0CDF828B0FEF78CFD16
:1045800098B12D4B2D4ECDF82C9001221A7008A910
:1045900000233046CDE909AB0793ADF82030FFF793
:1045A00037FAD8B16FF0060415E0254B07A930465D
:1045B0001E60FEF7D7FB0028E3D1079A802AE0D1DE
:1045C000204A21491E4B0A6016681868424629464F
:1045D000B0470028D5D10123BB6191E7DFF8609097
:1045E00007A93046C9F80060FEF752FE0028D9D16D
:1045F000079B402BD6D1154B134AD9F80000136006
:1046000029461B68424698470028E4D0CAE76FF065
:104610000304E0E76FF0010472E700BF00440258B2
:104620006828001000240258001000502C290010A7
:1046300000100052442800106428001024280010A4
:10464000B029001014000010B42900106000001000
:1046500084280010942900105D3E1008F53C1008D5
:10466000353E100807B54FF4F073009301224FF464
:104670004873FFF773FE03B05DF804FB094A02605C
:104680004A684260012282608A68C2600A680261E8
:104690004FF4407C0022C0E905C2C261CA680262D0
:1046A00002F0EEBC0050005213B50C46A0B90C4805
:1046B0004178807800931346224648B90948FEF7AE
:1046C000BAF818B16FF0040002B010BD0020FBE78B
:1046D0000448FEF758F8F4E76FF00100F4E700BF74
:1046E000B8290010C42900102DE9F7430F461446DD
:1046F000B0BBD5B2C5F580759D42DFF87480DFF898
:104700006C9028BF1D46D61898F801101748FDF781
:104710004FFF28B998F801104846FDF774FF20B103
:104720006FF0040003B0BDE8F083009598F8011025
:1047300023463A464846FDF7D3FF0028F0D198F8C3
:1047400001100A48FDF734FF0028E9D12C4404F594
:104750008073B3422F4406D9351BA642D4D8E1E773
:104760006FF00100DEE74FF48075F6E7C429001012
:10477000B829001070B50D461646B8B90D4C0E4854
:104780006178FDF715FF10B16FF0040070BD61781E
:104790000948FDF738FF0028F6D16178064833460E
:1047A0002A46FEF7BCF80028F0D0EDE76FF00100D4
:1047B000ECE700BFB8290010C429001010B504466A
:1047C00008461CB9FDF7E3FE204610BD6FF001005E
:1047D000FBE7000010B588B90A4C0B48A378617854
:1047E0004BB9FEF75DF910B16FF0040010BD022364
:1047F00023700020FAE7FEF709F9F4E76FF00100F3
:10480000F4E700BFB8290010C42900107FB5F8B93B
:10481000144D2B78022B1ED1134C204602F021FEA2
:1048200018B16FF0030004B070BD10232046E360A0
:1048300002F026FC03460028F3D101260096697891
:104840000DF10F022046FDF7F6FF38B92E70EAE7AA
:104850006FF00100E7E76FF01A00E4E76FF0040083
:10486000E1E700BFB8290010C429001038B50028BE
:1048700057D12D4C2378022B4CD0002340252B48B8
:1048800023800421A370656001F014FA28482946AA
:1048900001F010FA27484FF4006101F00BFA2648A6
:1048A0004FF4007101F006FA2348802101F002FA6A
:1048B0002148294601F0FEF91D48294601F0FAF980
:1048C0001E48042101F0F6F91C48082101F0F2F914
:1048D00017484FF4007101F0EDF915484FF480418D
:1048E00001F0E8F9164B1748DA6F42F48042DA67B4
:1048F000DA6F22F48042DA67D3F8D42022F48042BF
:10490000C3F8D42002F009FC002814BF6FF00300A4
:10491000002038BDFFF77AFF0028AED06FF004000A
:10492000F7E76FF00100F4E7B8290010000402581F
:1049300000180258000C025800140258001C0258BB
:1049400000440258C4290010F8B50C46174630BB85
:10495000174D2B78022B25D0164EB2FA82F35B0945
:104960001B013046F36002F08BFBF0B96B78032B30
:104970000FD1032C05D101232B706C70AF70002078
:10498000F8BD3046FEF726F80028F4D06FF004009A
:10499000F6E7032CEFD13046FEF700F8F4E76FF0AE
:1049A0000100EDE76FF01900EAE76FF00300E7E7B9
:1049B000B8290010C42900102DE9F0470C46A4B016
:1049C000002840F0AC81034D2F782FB1002024B097
:1049D000BDE8F087B8290010C34BC448D3F8D420F1
:1049E00042F48042C3F8D420D3F8D42002F48042A9
:1049F0000192019ADA6F42F48042DA67DA6F22F4A8
:104A00008042DA67D3F8E02042F00202C3F8E020E7
:104A1000D3F8E02002F002020292029AD3F8E020DA
:104A200042F04002C3F8E020D3F8E02002F0400258
:104A30000392039AD3F8E02042F00802C3F8E02082
:104A4000D3F8E02002F008020492049AD3F8E020A0
:104A500042F02002C3F8E020D3F8E02002F0200268
:104A60000592059AD3F8E02042F02002C3F8E02036
:104A7000D3F8E02002F020020692069AD3F8E02054
:104A800042F02002C3F8E020D3F8E02002F0200238
:104A90000792079AD3F8E02042F04002C3F8E020E2
:104AA000D3F8E02002F040020892089AD3F8E02000
:104AB00042F08002C3F8E020D3F8E02002F0800248
:104AC0000992099AD3F8E02042F08002C3F8E0206E
:104AD000D3F8E02002F080020A920A9AD3F8E0208C
:104AE00042F04002C3F8E020D3F8E02002F0400298
:104AF0000B920B9AD3F8E02042F04002C3F8E0207A
:104B0000D3F8E03003F040030C930C9B4FF0040902
:104B10000223CDE916930926032316A94FF0400876
:104B2000CDE918734FF00A0A1A9600F0DDFF012351
:104B300016A96F481893CDF85880CDF868A000F0FA
:104B4000D3FF4FF4006316A96A48169318971A9674
:104B500000F0CAFF16A96848CDF858901A964FF48D
:104B6000007900F0C1FF16A96448CDF85890CDF83F
:104B700068A000F0B9FF082316A95F4816931A969B
:104B800000F0B2FF802316A95C4816931A9600F035
:104B9000ABFF16A95648CDF8589000F0A5FF16A90E
:104BA0005648CDF8588000F09FFF4FF4804316A977
:104BB0004F48169300F098FF3A460F215C2000F012
:104BC0009BFA5C2000F0CAFA11A8FDF7E0FC6378BC
:104BD0004B4ACDF8408052F823200E92119A92FA57
:104BE000A2F2B3FA83F3B2FA82F25B09013A1B0133
:104BF00044480D920DA90F93FFF740FD002840F0A7
:104C0000918040480321FDF791FF002840F0848007
:104C10003C480321FDF7AAFF00287DD16978394877
:104C2000FDF7C6FC0146002876D13648FDF77EFF29
:104C30000146002870D13348FDF798FF014600284F
:104C40006AD10123A8702F482B80FDF7B1FC002802
:104C500062D169782B48FDF718FD00285CD14FF42C
:104C600040731C93852316934FF040731F930223C8
:104C7000CDE91D00CDE92030CDE92200ADF80200DC
:104C80001B9041F288321F4816A902F057FA0028FB
:104C900042D11C4841F288320DF1020102F0F0FAD3
:104CA000002839D169781748FDF7ADFCA0BB8123F6
:104CB0001693BDF80230134823F0F0031B051B0DBB
:104CC00043F4004343F0800341F2883216A9ADF863
:104CD000023002F033FAF8B90A4841F288320DF195
:104CE000020102F071FA0FE0004402580004025879
:104CF00000180258000C0258001C025800140258F8
:104D000060DE1008C429001030B962782178FFF7FE
:104D10001BFE00283FF45AAE6FF0040057E66FF018
:104D2000010054E66FF0030051E600BF1549164B31
:104D300010B50122C0E90012826004212022C0E9DE
:104D4000031240244FF4C072C0E9054200224FF420
:104D50000064C0E907244FF4805488B044629A622A
:104D600007220223CDE903126944CDE90132CDE9DE
:104D70000533079303F028FD003818BF012008B061
:104D800010BD00BF404100529C2A0010F0B50546FE
:104D90008FB0002840F0DD80714B7248D3F8D420EA
:104DA000714C724E42F48052C3F8D420D3F8D42010
:104DB00002F480520192019AD3F8D42042F0010209
:104DC000C3F8D420D3F8D42002F001020292029A50
:104DD000D3F8E02042F00802C3F8E020D3F8E02046
:104DE00002F008020392039AD3F8E02042F0100286
:104DF000C3F8E020D3F8E02002F010020492049AF5
:104E0000D3F8E02042F02002C3F8E020D3F8E020FD
:104E100002F020020592059AD3F8E02042F0400209
:104E2000C3F8E020D3F8E02002F040020692069A90
:104E3000D3F8E02042F08002C3F8E020D3F8E0206D
:104E400002F080020792079AD3F8E02042F48072C1
:104E5000C3F8E020D3F8E03003F480730893022213
:104E6000089B0123CDE90A2303270C23CDE90C730A
:104E700009A94CF20373099300F036FE4FF68373D1
:104E80003B48099309A900F02FFE4FF63F0339482C
:104E9000099309A900F028FE48F237133648099310
:104EA00009A900F021FE4FF6E0733448099309A9DF
:104EB00000F01AFE40F2FF633148099309A900F09F
:104EC00013FE4FF080414FF0805340F2022040F635
:104ED0000802C4E90113C4E9050280232022C4E9C1
:104EE0000723C4E903354FF00072A3622046254B27
:104EF00023606262C4E90B55C4E90D55346326642E
:104F000001F07FFE204601F00CFE2A460F217A2098
:104F100000F0F2F87A2000F021F93046FFF706FFA2
:104F2000D0B919490823C1E9003740F20363C1E948
:104F300002303023C1E9053008614FF40073304678
:104F4000CB61FDF7F7FA002818BF6FF004000FB02F
:104F5000F0BD6FF00100FAE74FF0FF30F7E700BF58
:104F600000440258000C0258102A00109C2A00101D
:104F7000001002580014025800180258001C025871
:104F800000200258400000527C2A0010034B3422BB
:104F900002FB0033186B01F08BBE00BF9C2A00108F
:104FA00038B50F4B1A7805460AB9012038BD4FF4C1
:104FB0007A73B3FBF2F30B4A1068B0FBF3F000F026
:104FC000DBF804460028F0D10F2DEED80246294622
:104FD0004FF0FF3000F090F8034B20461D60E5E7EE
:104FE000AC00001004000010B000001013B5214CFC
:104FF000214AD4F8D83043F48043C4F8D830D4F8E8
:10500000D83003F480430193019BD2F8003423F499
:105010007F2323F4706343F40143C2F80034D2F8D1
:10502000003443F00103C2F80034032000F052F8CA
:1050300002F062FAA269A3691049C2F3032203F0E5
:105040000F038A5CCB5C02F01F02D04003F01F0309
:10505000D8400B4B18600B4B18600020FFF7A0FFE7
:10506000044620B9FDF7A4F8204602B010BD012483
:10507000FAE700BF004402580040024058D610082A
:105080000000001004000010034A044B11681B7854
:105090000B441360704700BFD02A0010AC00001012
:1050A000014B1868704700BFD02A001038B504467D
:1050B000FFF7F6FF631C1CBF054B1B78054618BFA6
:1050C000E418FFF7EDFF431BA342FAD338BD00BF3E
:1050D000AC0000100749CA6822F4E062030212041F
:1050E00003F4E063120C134343F0BF6343F4003353
:1050F000CB60704700ED00E0164B30B5DC68C4F3C0
:105100000224C4F10703251D042B28BF0423062D08
:105110004FF0FF358CBF033C002405FA03F321EA6E
:105120000303A54022EA0502A340002843EA020344
:10513000ACBF00F16040084A4FEA0313B8BF00F06B
:105140000F00DBB2AABF00F56140135480F80033B2
:1051500030BD00BF00ED00E014ED00E0002807DBEB
:10516000044A4109012300F01F00834042F8213026
:10517000704700BF00E100E00138B0F1807F0BD242
:105180004FF0E023054A5861F02182F823100020F7
:10519000072298611A6170470120704700ED00E016
:1051A000044B1B68C3F30313072B14BF0120032018
:1051B000704700BF00ED00E070B50468049D666CA8
:1051C00045EA0345436806F040463543B3F5403FA2
:1051D0006564E26330D185681DB1012D03D121F0F2
:1051E0007F41A16370BD022D01F47F0301F47F4074
:1051F000CAB207D1D90C800AC90241EA401141EA7A
:10520000D201EEE7032D01F07F410AD1DB0CC00A89
:105210009B0243EA401343EAD203C90F43EAC13178
:10522000DFE71B0D000B1B0243EA001343EA1213D6
:10523000090F43EA0131D4E7B3F5802F0CBF616158
:10524000E160CFE7704710B50446002836D090F8EB
:10525000613003F0FF021BB980F86020FFF7F2FF16
:10526000022384F861302368E0691968626821F4D8
:10527000E021024321F040010A431A60596BA06902
:10528000A26821F48371024321F001010A435A63A9
:105290001A6CE168120C12040A431A64D4E904027D
:1052A000596B520542EA005221F440110A435A63F5
:1052B00000200123606684F8613010BD0120FCE706
:1052C00073B590F86050012D04464FF002050FD0E1
:1052D00080F861500126069D80F860600095FFF718
:1052E0006BFF2268136833431360002002B070BD67
:1052F0002846FBE773B50023019303681B68DB07AF
:1053000004460D4618D42268D369526A13439E0698
:1053100006D5FFF7C5FE064623685A68D2063FD574
:10532000236812229A60012384F861300020002350
:1053300084F8603002B070BDFFF7B2FE0646236805
:105340005A689207DFD45A680192019A12F0210F2D
:1053500014D0019A950642BF626E42F00202626664
:10536000019AD00742BF626E42F0010262662122BA
:105370009A60042384F861300120D8E7691CDFD0EB
:10538000FFF78EFE801BA84201D8002DD7D1636E97
:1053900043F020036366032384F861300320C6E7EB
:1053A0005A680192019A12F0290F16D0019A160735
:1053B00042BF626E42F004026266019A950642BFE5
:1053C000626E42F002026266019AD00742BF626ECC
:1053D00042F0010262662922CAE7691C9DD0FFF7EC
:1053E0005FFE801BA842D2D8002D95D1CFE70000E8
:1053F00070B590F86030012B02464FF0020030D0BB
:1054000082F861001C2000FB0120012382F860303B
:10541000D0E90B45836B1B0543EA0543C56B406B25
:10542000234343EA4553A4F10905012D9ABF00F037
:105430007F40034343EA0063106899B9446A1749FF
:1054400021401943012D936A4162836103D8536B54
:1054500023F07F4383620123002082F8613082F8C9
:10546000600070BD0B2C01BF1C2404FB01240C4EFA
:10547000246C14BF0B4E43EA8443C46924EA060437
:105480002343C3611C2303FB0121012D8B6A0361AC
:105490009EBF4B6B23F07F430362DCE7F0FFCC0041
:1054A0000F003FFF0F0033FF2DE9F04107460D4687
:1054B00014461E46FFF7F4FD80463B685A6FD2073C
:1054C0000AD5069A44EA062444EA024444EA8514CA
:1054D000DC660020BDE8F081FFF7E2FDA0EB0800EC
:1054E000B0F57A7FE9D90320F4E7704773B50D462C
:1054F0000446002800F0A980437C0BB9FFF7F5FFB4
:1055000003236374002300932368D3F8302442F00C
:105510008072C3F83024D3F8303403F080730093E2
:10552000009BFFF7BDFD06462268D2F80C34D90473
:105530007AD5D2F8303423F45E3323F4FE73C2F804
:105540003034D5E90003DB0243EA8003A868D2F8CF
:10555000301443EA00430B43C2F830340023019374
:10556000D2F8303443F00103C2F83034D2F830348A
:1055700003F0010301930120019BFFF797FDFFF763
:105580008FFD06462368D3F80C24D20556D5D3F8F0
:10559000A020616842F00602C3F8A020D3F894204E
:1055A00022F00302C3F89420D3F894200A4342F077
:1055B0000102C3F89420D3F8A420E16822F003028A
:1055C000C3F8A420D3F8A4200A43C3F8A4209A68FF
:1055D000A16822F0FF029A609A680A439A606A689A
:1055E0001B49012A38BF01224A43A96801F003017F
:1055F0008A40296846F2A8104143B2FBF1F2D3F881
:10560000181421F03F01C3F81814D3F8181400201F
:105610000A43C3F81824C3F8C400C3F8C800012320
:105620006061A061637407E0FFF73AFD801BB0F58D
:105630007A7F7FF679AF032002B070BDFFF730FDAF
:10564000801BB0F57A7F9DD9F5E70120F4E700BF14
:1056500000093D0070B5037C012B044600F0ED808D
:1056600001230374236848685A6BCD684E6922F0A1
:1056700001025A63D3F8002422F00102C3F8002487
:105680009A6B22F003029A639A6B2A439A63DA6B4D
:105690000D6922F47F5222F03F02DA63DA6B2A436B
:1056A000DA631A6C664D2A401A641A6C32431A6423
:1056B0005A6C2A405A645A6C8D692A435A64DA68D3
:1056C0000D6822F00302DA60DA682A43DA605A6968
:1056D00022F007025A61D1E908623243CE695D695E
:1056E00032432A435A611A6922F00F021A611A6979
:1056F00002431A61D3F8002422F00E02C3F80024FA
:10570000D3F80024032842EA4002C3F8002407D15A
:105710001A69886822F480721A611A6902431A6150
:105720009A6C48488D6A02409A649A6C2A439A643B
:10573000DA6C4D6B0240DA64DA6CC86A0243DA64F0
:105740001A6D086B22F4FF4222F07F021A651A6D6F
:1057500002431A655A6D3C4802405A655A6D2A4305
:105760005A659A6D8D6B02409A659A6D2A439A65C7
:10577000DA6D0240DA65C86BDA6D0243DA651A6EDB
:1057800022F47F5222F03F021A661A6E086C02431E
:105790001A669A6B486C22F400429A639A6B024331
:1057A0009A639A69886C22F47F029A619A6942EA44
:1057B00000429A619A69C86C22F0FF029A619A6964
:1057C00002439A619A6B086D22F400529A639A6BB5
:1057D00002439A639A6B486D22F480529A639A6BE3
:1057E00002439A639A6B886D22F400629A639A6B03
:1057F00002439A639A6BC86D22F480629A639A6B33
:1058000002439A639A6B086E22F400729A639A6B51
:1058100002439A639A6B486E896E22F480729A638F
:105820009A6B02439A639A6B22F480429A639A6B52
:1058300000200A439A63207470BD0220FCE700BF79
:1058400000E0FFFF00F0FFFF00FCFFFF027C012AE9
:1058500003460AD00268D06A20F01F00D062D06AE6
:1058600001430020D1621874704702207047037C06
:10587000012B82B01CD0026800230093516841F0D4
:1058800001015160516801F00101009100990193FB
:10589000D2F8041441F00801C2F80414D2F8042428
:1058A000037402F008020192019A184602B0704790
:1058B0000220FBE737B5057C012D044609D0012500
:1058C0000574069D0095FFF7EFFD0023237403B0D8
:1058D00030BD0220FBE72DE9F84F1C46037C012B6D
:1058E000DDE90A9806460F46154652D00123037497
:1058F000FFF7D6FB83463268536F13F0010A19D0C5
:10590000032C20464FF0000328BF032083421DD103
:10591000E01AC2F87090434410BB0134230245EAF8
:1059200087159BB224021D4304F47F042543D566EA
:10593000307409E0FFF7B4FBA0EB0B00B0F57A7F01
:10594000D9D986F810A00320BDE8F88F18F8031005
:1059500001334FEAC30C01FA0CF149EA0109D5E71A
:1059600004284FF0000C8646614628BF4FF0040E15
:1059700013F801804FEAC109013108FA09F88E4590
:105980004CEA080CF4D1C2F870C0A0EB0E007344CE
:10599000C2E70220D8E72DE9F7431E46037CDDF875
:1059A0002890DDF83080012B05460C4617466FD055
:1059B0000123022E03740DD9C6F307230093372267
:1059C000F3B2FFF771FD28B100232B74012003B05F
:1059D000BDE8F083B9F1060F0FD10B9B2A681B02BB
:1059E00043EA841343F00603D366FFF759FB0446EA
:1059F000002E27DC00202874E9E7B9F1040F05D157
:105A0000A4012B6844F00404DC66EEE7B9F1140F3E
:105A100008D198F800202B68A40144EA022444F03D
:105A20001404F1E7B9F1240FCED198F801202B68C6
:105A3000A40144EA024498F8002044EA022444F015
:105A40002404E1E72A68536F13F010030DD1042EEC
:105A5000106F324628BF0422D90020FA01F1F95410
:105A600001339A42F8D11744B61AFFF719FB001B0D
:105A7000B0F57A7F03D900232B740320A7E72B68A6
:105A80005A6F5206B4D4D3F8C0309B069CD4AFE70B
:105A900002209CE718B111B9426008467047012105
:105AA000FBE710B10160002070470120704770B51E
:105AB0000468012604F01F039E400546FFF770FBB3
:105AC000C4F301431B01032803F1B0430CBF883327
:105AD000C8331A68324205D01E606B6813B1BDE846
