:020000040800F2
:1000000000100020F51C0008FD1B0008051C00085E
:10001000091C00080D1C0008111C0008000000004D
:10002000000000000000000000000000151C000897
:10003000191C0008000000001D1C0008211C0008FD
:10004000611D0008611D0008611D0008611D000898
:10005000611D0008611D0008611D0008611D000888
:10006000611D0008611D0008611D0008611D000878
:10007000611D0008611D0008611D0008611D000868
:10008000611D0008611D0008611D0008611D000858
:10009000611D0008611D0008611D0008611D000848
:1000A000611D0008611D0008611D0008611D000838
:1000B000611D0008611D0008611D0008611D000828
:1000C000611D0008611D0008611D0008611D000818
:1000D000611D0008611D0008611D0008611D000808
:1000E000611D0008611D000800000000611D00087E
:1000F000611D0008611D0008611D0008611D0008E8
:10010000611D0008611D0008611D0008611D0008D7
:10011000611D0008611D0008611D0008611D0008C7
:10012000611D0008291C0008611D0008611D0008F0
:10013000611D0008611D0008611D0008611D0008A7
:10014000611D0008311C00080000000000000000D4
:10015000611D0008611D0008611D0008611D000887
:10016000611D0008611D0008611D0008611D000877
:10017000611D0008611D0008611D000800000000ED
:10018000611D0008611D0008611D0008611D000857
:10019000611D0008611D0008611D0008611D000847
:1001A000611D0008611D0008611D0008611D000837
:1001B000611D0008611D0008611D0008611D000827
:1001C000611D0008611D0008611D0008611D000817
:1001D000611D0008611D0008611D0008611D000807
:1001E000611D0008611D0008611D0008611D0008F7
:1001F000611D0008611D0008611D0008611D0008E7
:10020000611D0008611D0008611D0008611D0008D6
:10021000611D0008611D0008611D0008611D0008C6
:10022000611D0008611D0008611D0008611D0008B6
:10023000611D0008251C0008611D0008611D0008E3
:10024000611D0008611D0008611D0008611D000896
:10025000611D0008611D0008611D0008611D000886
:10026000611D0008611D0008611D0008611D000876
:10027000611D0008611D0008611D0008611D000866
:10028000611D0008611D0008611D000800000000DC
:08029000611D0008611D00085A
:1002A00010B5054C237833B9044B13B10448AFF3B0
:1002B00000800123237010BD800100240000000095
:1002C0008C2B010808B5034B1BB103490348AFF35E
:1002D000008008BD00000000840100248C2B010870
:1002E00010F8012B11F8013B012A28BF9A42F7D0E0
:1002F000D01A7047034613F8012B002AFBD1181AB5
:1003000001387047000000000000000000000000FD
:1003100001F0FF01102A2BDB10F0070F08D010F8B6
:10032000013B013A8B422DD010F0070F42B3F6D1BA
:10033000F0B441EA012141EA014122F007047FF0D3
:1003400000070023F0E80256083C85EA010586EA2A
:10035000010685FA47F5A3FA87F586FA47F6A5FA66
:1003600087F68EB9EED1F0BC01F0FF0102F0070272
:1003700032B110F8013B013A83EA010313B1F8D11D
:100380000020704701387047002D06BF35460338FE
:10039000073815F0010F07D1013015F4807F02BF37
:1003A000013015F4C03F0130F0BC0138704700BF88
:1003B00081F0004102E000BF83F0004330B54FEA16
:1003C00041044FEA430594EA050F08BF90EA020F83
:1003D0001FBF54EA000C55EA020C7FEA645C7FEA16
:1003E000655C00F0E2804FEA5454D4EB5555B8BF39
:1003F0006D420CDD2C4480EA020281EA030382EAAA
:10040000000083EA010180EA020281EA0303362D3B
:1004100088BF30BD11F0004F4FEA01314FF4801C0E
:100420004CEA113102D0404261EB410113F0004F20
:100430004FEA03334CEA133302D0524263EB4303D7
:1004400094EA050F00F0A780A4F10104D5F1200E75
:100450000DDB02FA0EFC22FA05F2801841F10001D0
:1004600003FA0EF2801843FA05F359410EE0A5F1A4
:1004700020050EF1200E012A03FA0EFC28BF4CF0D5
:10048000020C43FA05F3C01851EBE37101F000458B
:1004900007D54FF0000EDCF1000C7EEB00006EEB98
:1004A0000101B1F5801F1BD3B1F5001F0CD3490822
:1004B0005FEA30004FEA3C0C04F101044FEA445279
:1004C00012F5800F80F09A80BCF1004F08BF5FEA00
:1004D000500C50F1000041EB045141EA050130BDE0
:1004E0005FEA4C0C404141EB0101013C28BFB1F5F2
:1004F000801FE9D291F0000F04BF01460020B1FA3D
:1005000081F308BF2033A3F10B03B3F120020CDA0F
:100510000C3208DD02F1140CC2F10C0201FA0CF0ED
:1005200021FA02F10CE002F11402D8BFC2F1200C52
:1005300001FA02F120FA0CFCDCBF41EA0C01904008
:10054000E41AA2BF01EB0451294330BD6FEA040451
:100550001F3C1CDA0C340EDC04F11404C4F120023C
:1005600020FA04F001FA02F340EA030021FA04F34E
:1005700045EA030130BDC4F10C04C4F1200220FAA5
:1005800002F001FA04F340EA0300294630BD21FAE3
:1005900004F0294630BD94F0000F83F4801306BFA9
:1005A00081F480110134013D4EE77FEA645C18BF9D
:1005B0007FEA655C29D094EA050F08BF90EA020F34
:1005C00005D054EA000C04BF1946104630BD91EA2C
:1005D000030F1EBF0021002030BD5FEA545C05D12F
:1005E0004000494128BF41F0004130BD14F580046E
:1005F0003CBF01F5801130BD01F0004545F0FE41E2
:1006000041F470014FF0000030BD7FEA645C1ABF16
:10061000194610467FEA655C1CBF0B46024650EA4D
:10062000013406BF52EA033591EA030F41F4002179
:1006300030BD00BF90F0000F04BF0021704730B5FF
:100640004FF4806404F132044FF000054FF00001D4
:1006500050E700BF90F0000F04BF0021704730B595
:100660004FF4806404F1320410F0004548BF40426A
:100670004FF000013EE700BF42004FEAE2014FEABF
:1006800031014FEA02701FBF12F07F4393F07F4F9A
:1006900081F06051704732F07F4208BF704793F09D
:1006A0007F4F04BF41F40021704730B54FF46074B0
:1006B00001F0004521F000411CE700BF50EA0102B3
:1006C00008BF704730B54FF000050AE050EA01025C
:1006D00008BF704730B511F0004502D5404261EBCC
:1006E00041014FF4806404F132045FEA915C3FF40D
:1006F000D8AE4FF003025FEADC0C18BF03325FEAAA
:10070000DC0C18BF033202EBDC02C2F1200300FA5A
:1007100003FC20FA02F001FA03FE40EA0E0021FA7F
:1007200002F11444BDE600BF2DE9F8430C1E7DDB49
:10073000FF2C06469146984640F38580B4F5803FED
:10074000C0F26F81230371D514F47F4F00F09C80B9
:10075000C4F3072505F0E005B9F1000F5DD0802D49
:1007600000F050812CDC402D00F0AD8040F3D180B2
:10077000602D5BD106234FF00408F269B76913447A
:100780009F422DDB30691044FF2C00F3A88000F855
:10079000014BF3690133602DF36100F0238100F315
:1007A000CF80202D00F01781402D31D199F80130F4
:1007B000037099F800304370F3690233F36127E066
:1007C000C02D00F0E580E02D33D1B8F1000F2DDD14
:1007D000F26908F10203B76913449F4280F21E8157
:1007E00072691ABB7F009F42FCDBAB4B3946306914
:1007F0001B689847D0B1F369E02D3061B7611844A8
:10080000C2D14246494611F02AFBF3694344F361E1
:1008100001231846F360BDE8F883A02D00F0248181
:10082000C02D40F0F780B8F1000F10D00020BDE8D7
:10083000F883A02DFAD1B8F1000FF7DB00F0FE80AD
:1008400008F1070399E704F0E005002A50D0612C75
:100850001DDC5F2C00F39A81002C80D0212C5CDC05
:100860001F2C7FF77CAF336C002B7FF478AF202DEB
:100870001AD0612C40F37E81802C00F06181812CA4
:1008800000F0458120247EE004F0E00582B3812C55
:100890003FF765AF7F2C7FF762AF336C002B7FF49F
:1008A0005EAF202D40F0318103234FF0010864E753
:1008B000B9F90020D31700F1E080B2F5807F73F121
:1008C0000003DFDB4024F269B769131DBB4200F36C
:1008D0009D80306940254FF00208104454E7447071
:1008E000C4F30724023000F8024CF369023352E7E4
:1008F000A02D98D0C02D96D0002D97D1612C00F35B
:10090000AA805F2C00F3CA80002CA7D1402C3FF7AF
:100910002FAFA846A5BB02232FE7A4F14003012B6C
:100920003FF61DAF336C002B7FF419AF202DBBD0E9
:10093000412CBDD0B9F80030FF2BA3D940240EE7DD
:10094000A02D2CD0C02D2AD099F80730037099F82B
:100950000630437099F80530837099F80430C370FD
:1009600099F80330037199F80230437199F8013016
:10097000837199F80030C371F3690833F36147E775
:10098000202D7FF453AF032320254FF00108F4E618
:10099000B8F1000FFFF64AAF08F10603EDE6B8F133
:1009A0007F0F034652DD48F0004212BA43F8042B91
:1009B000F2690432F26149464246184611F04FFA94
:1009C000A02D04D1002200F8082008F10108F369E5
:1009D0004344F3611CE799F800300370F369013375
:1009E000F36115E799F80330037099F8023043700A
:1009F00099F80130837099F80030C370F3690433BB
:100A0000F36105E70A234FF00808B6E640254FF0EA
:100A10000208E5E6002D3FF43AAF07E730691044DD
:100A2000EFE6251205F0E005002A7FF498AE05B345
:100A3000A02D2AD1B8F1000F7FF4F8AEB9F1000F64
:100A400019D04846FFF756FC8046F9E603F8018BBB
:100A5000F2690132AEE7812C01DD402D86E67F2C64
:100A60003FF71BAF402D81E6B8F1000F3FF40FAF09
:100A7000DCE6A8464FE707237FE6803273F1FF33B9
:100A800001DA41246BE621247DE7C02D7FF4CEAE50
:100A9000B8F1000F80D0C9E6A0010024336C002B10
:100AA000E7D1612C15D1D9F80020D3171FD4B2F5A6
:100AB000807F73F10001FFF6E5AEB2F5803F73F180
:100AC0000003FFF4FFAE602506234FF004082C4618
:100AD00053E6D9F800200023FF2A7FF6D3AEB2F503
:100AE000803F73F10003FFF4EDAE602437E612F1AE
:100AF000800F73F1FF31C6DA12F5004F73F1FF3347
:100B000001DA61242BE64124DDE6802C18D0D9E9F6
:100B10000023002B1DDBB2F5807F73F10001FFF68F
:100B2000B1AEB2F5803F73F10002FFF4CBAE002B03
:100B30007FF415AE602406234FF0040825461CE61A
:100B4000D9E90023B2F5807F73F10001FFF49AAE7A
:100B5000E7E712F1800F73F1FF3194DA12F5004FDD
:100B600073F1FF31CFDAB2F1004F73F1FF3317DACF
:100B70008124F4E5412C3FF49BAE602CA9D0402C9D
:100B80003FF4D8AE202C3FF4EAAD7BE6336C002B6B
:100B90007FF4E5AD202D3FF487AE612C83D068E66D
:100BA0000623602561244FF00408E6E52DE9F84F9F
:100BB000013A0A9F1C46054600EB020838468A4661
:100BC000FFF798FB002C05EB0A0C3ADDE0452CBF43
:100BD00000230123ABBB064615F80AB00CF1010057
:100BE00000EB0B0AD0452CD39946BBF1000F5ED029
:100BF0005A46394611F06AF808B9B34563D0C24580
:100C00001FD89AF8003003F0E002DB0654BF0AF167
:100C100001000AF10200602A4DD018D8202A44D0E1
:100C2000402A11D1023085420BD8804509F10109D3
:100C300007D34C4505DD10F801BB00EB0B0AC2459C
:100C4000D3D90020BDE8F88F002AECD0F9E7C02AFC
:100C500019D012D9E02AF4D18045F2D390F90020BE
:100C60000378002A06DAC31C9845EAD303681BBA46
:100C700023F00043013B1844D5E7802A01D1083016
:100C8000D1E7A02ADDD18045DBD390F900100378AD
:100C9000002912DAC31C9845D3D350F8043BA02A8C
:100CA0001BBA23F000431844BDD10130BBE7002E2E
:100CB000C8D08246A3E70430B5E70130A02A184423
:100CC000B1D10130AFE75046BCE700BFF8B5264FC1
:100CD0003B68002B36D0254E3268002A2FD0244D99
:100CE0002A684AB3482098470446F8B148220021B0
:100CF00010F0E3FF3B684BB33268002A2BD02A6820
:100D0000002A2DD04FF48070984778B1194A0123FA
:100D10000921206122604FF48070E222A360E36029
:100D200022626360C4E906012046F8BD2046002423
:100D30002B6898472046F8BD0F4A2A60D2E70F4A31
:100D40003260CCE70E4A13463A60C4E70C4B326877
:100D50003B60002AD3D1094A32602A68002AD1D1E7
:100D6000054A2A60CEE700BFA4010024A0010024A8
:100D70009C0100241FB1221FED160108AD190108C6
:100D8000DD160108F0B110B5836804465BB9236B2A
:100D90000BB1606A9847616869B10B4B20461B68CC
:100DA000BDE8104018474369002BF0D1064B00699D
:100DB0001B689847EBE74422201D10F07EFF034B91
:100DC000236010BD704700BF9C0100241FB1221F8B
:100DD00018B1264B02689A4200D0704783680BB165
:100DE000C3680BB9406A704710B4C36A04697F2BAB
:100DF000C26925DC063A04F10801DBB27F2A2372BE
:100E000030DD03320C1F42F00043C3F3076C01F8DE
:100E100004CCC3F3074C01F803CCC3F3072CDBB2BB
:100E200001F802CC01F8013C631E016A04F8011CC0
:100E30000021C160C0E9093218465DF8044B7047D3
:100E400043F00043611D033AC3F3076C84F805C007
:100E5000C3F3074C84F806C0C3F3072CDBB284F855
:100E600007C0CBE74C1ED3B2DCE700BF1FB1221F87
:100E7000034610B3334A0168914218D0027802F059
:100E8000E001E02919D112F0100016D1E03A022A4F
:100E900040D893F901205878002A04DAD3F80100E9
:100EA00000BA20F000400228D8BF002070478268B6
:100EB0000AB1C2681AB9986A70470020704710B426
:100EC000C26A04697F2AC06925DC063804F108017A
:100ED000D2B27F28227230DD03300A1F40F0004C6E
:100EE000CCF3076401F8044CCCF3074401F8034C3D
:100EF000CCF307245FFA8CFC01F8024C01F801CC1A
:100F000000211C6A02F8014DD960C3E909205DF88F
:100F1000044B7047704742F00042611D0338C2F332
:100F2000076C84F805C0C2F3074C84F806C0C2F30E
:100F3000072CD2B284F807C0CBE74A1E5FFA80FCC8
:100F4000DCE700BF1FB1221F2DE9F04F044685B03A
:100F50000F4615461E46002B5CD0374B9A4204D1F3
:100F60003368002B14BF0125022514B1236AE22B3C
:100F700003D0002005B0BDE8F08FA368002BF8D0A7
:100F8000002FF6D03846FFF7B5F9FF288046F0D895
:100F900000970921D4F81090D4F81CB0E36A4846B1
:100FA0005A46FFF703FE0028E3D108F10103D4F805
:100FB00018A003935B44534513DD6269002AD8D11E
:100FC0004FEA4A0A5345FBDC1C4B484651461B6816
:100FD000984781460028CCD0D4F81CB0C4F818A09B
:100FE000206109EB0B003946424609F80B800130BD
:100FF00010F035FFE3690398324629460344204642
:10100000E3610E9BFFF790FB80B1E36A012003448C
:10101000E362AFE7A02A05D002DC022AA5D9A8E73F
:10102000C02AA6D10E9B002B9FD0A2E7E369039AAA
:101030009B1AE3619DE700BF61000800A001002446
:101040002D4B2E4910B4D3F8882042F47002C3F817
:1010500088201A6942F010021A610B6803F00F032E
:10106000062B05D80B6823F00F0343F007030B6032
:10107000234B0024234A1968204841F001011960DC
:101080001C6119680A401A6003681B0705D50368CC
:1010900023F00F0343F007030360194B00221A49A2
:1010A0001A481B4C9A61DA611A629C62D8624FF04E
:1010B000B04019635A639963DA6319645A64196812
:1010C00021F4802119601A66D0F8E420114942F415
:1010D0008042114BC0F8E4200A681340B3F1005F6E
:1010E00003D20E4B0122C3F808210D4B43F2D2026A
:1010F0001A605DF8044B704700ED00E000200052DC
:10110000004402587FEDF6EA800201010000FF0171
:10111000000202020010005C0000FFFF008000518E
:10112000004000520000000008B53C22144B154955
:101130001A601022186802239FED0F7B08610020BF
:1011400081ED007BC1E9022303F03AFF78B94FF447
:10115000FA7004F033FE0C4B00204FF480620B4910
:10116000187003F0FBFF0A4B02221A7008BD00F052
:10117000C3F8ECE7AFF300800200000080BB000082
:10118000BC010024A801002401100020C00100249B
:1011900000100020034B1B78022B01D1024A137070
:1011A000704700BF0010002001100020034B1B7887
:1011B000022B02D1024B01221A707047001000204E
:1011C00001100020022003F05BBC00BF10B50B4CE7
:1011D0002368632B09D9226809490A4810F0F0FCFA
:1011E0000848BDE8104000F0D3BA2368002001335E
:1011F0002360216803F0ECFFEDE700BFBC01002491
:10120000542C0108C005002410B50A4C23684BB9C2
:1012100022680949094810F0D3FC0848BDE810408D
:1012200000F0B6BA23680020013B2360216803F078
:10123000CFFFEDE7BC010024542C0108C0050024B9
:1012400007EE900A9FED097A82B0094AF8EEE77A34
:10125000002067EE877AFCEEE77ACDED017A9DF803
:1012600004301360116802B003F0B2BF2693493F07
:10127000BC0100240000000000B51D4B8BB0002213
:101280001C4804A90892CDE90622D3F8E02042F0D8
:101290000402C3F8E020D3F8E02002F00402019237
:1012A000019AD3F8E02042F00102C3F8E020D3F81D
:1012B000E02002F001020292029AD3F8E02042F00C
:1012C0008002C3F8E020D3F8E03003F080039FED04
:1012D000067B0393039B8DED047B06F0F9F80BB0BE
:1012E0005DF804FBAFF30080000100000200000085
:1012F000004402580000025808B572B6022003F0FC
:10130000BFFBFEE730B59FB04C2200210AA810F0C9
:10131000D4FC2022002102A810F0CFFC042007F00A
:101320006FF8294B0021294A0191D96A21F0010166
:10133000D962DB6A03F001030193936943F44043EC
:101340009361936903F440430193019B93699B0468
:10135000FCD50123402502242B204FF48031CDE918
:101360000D35CDE90F330523CDE917430C23CDE926
:1013700019430023CDE90A010AA8CDE91B33CDE9C1
:101380001344CDE9154507F0E7F80346D0B93F22ED
:101390000493082321460292032202A8099503928E
:1013A000CDE905354FF48063CDE9075307F0AEFC76
:1013B000014638B94FF4802207F0C0FB07F010FC5B
:1013C0001FB030BDFFF798FF0004005800480258D6
:1013D0006448654A6549121A30B5002485B010F09A
:1013E0003EFDCDE90044CDE9024404F071FD012148
:1013F0005F4A68465F4B01944FF05044ADF80010CF
:101400000292039304F082FD4FF0605040F201110C
:10141000594A4FF4807301906846ADF80010CDE949
:10142000022304F073FD554A554B40F201216846F2
:101430000194ADF80010CDE9022304F067FD04200B
:1014400004F054FD4F4A536913F4003311D1BFF334
:101450004F8FBFF36F8FC2F85032BFF34F8FBFF380
:101460006F8F536943F400335361BFF34F8FBFF362
:101470006F8F4448436913F4803324D1C0F884301B
:10148000BFF34F8FD0F8805043F6E07CC5F34E3465
:10149000C5F3C905640104EA0C012B4641EA8372D5
:1014A000013BC0F860225A1CF8D1203C14F1200FF7
:1014B000F1D1BFF34F8F436943F480334361BFF3EE
:1014C0004F8FBFF36F8F4FF6FF732F4D2C6814F4BF
:1014D00000443FD104F030FCFFF714FFD5F8E030B2
:1014E000204643F00073C5F8E030D5F8E03003F053
:1014F00000730093009B06F0E1F92146204606F0B8
:10150000EBF94FF6FF7220490B681B0426D5FFF755
:10151000B3FE022003F086FA00F00AFB00F0D8FACE
:1015200000220A21412004F073FC412004F0ACFCAD
:1015300000F05CF8002004F0DBFA68B9134B144AA1
:101540001A600CF081FAFFF7EFFD11F055FB11F076
:1015500047FBFAE7013BB9D2FFF7CEFE013AD3D2FF
:10156000FFF7CAFE00000000983F0000602202085A
:101570001F870003010101000F0000031800000392
:101580000100010100ED00E000440258240600249F
:1015900000803B4710B4054B0122054C0020096830
:1015A00021601A605DF8044B704700BF7806002484
:1015B00070060024014B00221A6070477406002454
:1015C00010B5064C82B0064B009406480AF002F8AB
:1015D000054B01221A6002B010BD00BFB51500080E
:1015E00095150008300600247406002470B51B4BC6
:1015F00000251B4C82B01B4E35701D6009F0EEFEBD
:1016000019492022204610F093FB4FF0FF33174971
:101610002846E5622563C4E9093309F013FFC8B918
:101620000F4809F0EFFFA26A531C10D001200423D9
:10163000616ACDE900300E4B09480EF047FD0028E5
:1016400005DB00230B4A3370137002B070BDFFF747
:1016500053FEF6E7FFF750FEE2E700BF041000205C
:101660003006002429060024682C0108C115000852
:101670007C0600242806002470B584B000261D4C8A
:101680000546FFF723FB582320221B4920608DF8D5
:101690000C3003AB0096FFF757FC602203AB1749F1
:1016A000009620680395FFF74FFC2568144E2846E6
:1016B000FFF78EFB034628461D46FFF7D9FBB26AAB
:1016C000531C0FD02B46012500903046716A0195BE
:1016D0000EF0FCFC002805DB206804B0BDE870407B
:1016E000FFF750BBFFF708FE206804B0BDE870406C
:1016F000FFF748BB2C0600247C2C0108802C010835
:10170000300600241E4B01464FF44E7270B584B073
:10171000186810F0A4FB40BFFFF7D8FA194C00235B
:101720005022194900930DF10F038DF80F2020224C
:101730002060FFF709FC2568144E2846FFF748FB98
:10174000034628461D46FFF793FBB26A531C0FD091
:101750002B46012500903046716A01950EF0B6FCCB
:10176000002805DB206804B0BDE87040FFF70ABB25
:10177000FFF7C2FD206804B0BDE87040FFF702BB70
:101780000C0000242C0600247C2C010830060024C8
:1017900070B584B000261D4C0546FFF797FA532319
:1017A000009620221A498DF80F300DF10F032060AA
:1017B000FFF7CAFB2B46A022164900962068FFF7C8
:1017C000C3FB2568144E2846FFF702FB0346284654
:1017D0001D46FFF74DFBB26A531C0FD02B46012567
:1017E00000903046716A01950EF070FC002805DB10
:1017F000206804B0BDE87040FFF7C4BAFFF77CFD75
:10180000206804B0BDE87040FFF7BCBA2C06002485
:101810007C2C0108882C01083006002470B584B0A7
:10182000194CFFF753FA00235222184900930DF187
:101830000F038DF80F2020222060FFF785FB25681D
:10184000134E2846FFF7C4FA034628461D46FFF705
:101850000FFBB26A531C0FD02B4601250090304677
:10186000716A01950EF032FC002805DB206804B097
:10187000BDE87040FFF786BAFFF73EFD206804B070
:10188000BDE87040FFF77EBA2C0600247C2C0108CE
:10189000300600241E4B01464FF44E7270B584B0E2
:1018A000186810F0DCFA40BFFFF710FA194C00235B
:1018B0004522194900930DF10F038DF80F202022C6
:1018C0002060FFF741FB2568144E2846FFF780FA99
:1018D000034628461D46FFF7CBFAB26A531C0FD0C9
:1018E0002B46012500903046716A01950EF0EEFB03
:1018F000002805DB206804B0BDE87040FFF742BA5D
:10190000FFF7FAFC206804B0BDE87040FFF73ABA70
:101910000C0000242C0600247C2C01083006002436
:1019200070B584B000261F4C0546FFF7CFF94C2355
:1019300020221D4920608DF80E300DF10E03009617
:10194000FFF702FB40220DF10E03184900962068B4
:10195000ADF80E50FFF7F8FA2568154E2846FFF748
:1019600037FA034628461D46FFF782FAB26A531C2F
:101970000FD02B46012500903046716A01950EF07C
:10198000A5FB002805DB206804B0BDE87040FFF728
:10199000F9B9FFF7B1FC206804B0BDE87040FFF76B
:1019A000F1B900BF2C0600247C2C0108902C010802
:1019B0003006002470B584B000261F4C0546FFF7A2
:1019C00085F9442320221D4920608DF80E300DF149
:1019D0000E030096FFF7B8FA40220DF10E031849E6
:1019E00000962068ADF80E50FFF7AEFA2568154E48
:1019F0002846FFF7EDF9034628461D46FFF738FA5B
:101A0000B26A531C0FD02B46012500903046716AF4
:101A100001950EF05BFB002805DB206804B0BDE8F3
:101A20007040FFF7AFB9FFF767FC206804B0BDE86E
:101A30007040FFF7A7B900BF2C0600247C2C0108DA
:101A4000902C01083006002470B584B0194CFFF7C3
:101A50003DF900234222184900930DF10F038DF840
:101A60000F2020222060FFF76FFA2568134E2846CA
:101A7000FFF7AEF9034628461D46FFF7F9F9B26AAB
:101A8000531C0FD02B46012500903046716A0195FA
:101A90000EF01CFB002805DB206804B0BDE8704098
:101AA000FFF770B9FFF728FC206804B0BDE870406C
:101AB000FFF768B92C0600247C2C010830060024AE
:101AC000704700BF014B01221A707047280600249E
:101AD0004FF0E02310B5D3F8F03DDB0703D54FF00E
:101AE0006043D3F8003E4FF0E0210D4B00240D4839
:101AF000D1F8FC2D42F08072C1F8FC2DC3F8B00F74
:101B00005C601A6842F001021A6004F051F9064B59
:101B1000002206495C601A6008609A6010BD00BF30
:101B2000001000E055CEACC50C10002018100020AD
:101B30000B4800230B4A00B583B0C0E9002308F02E
:101B4000DFFF48B901A9064809F01AF801980FF01B
:101B500083FE03B05DF804FBFFF7CEFBF2E700BFA6
:101B6000800600240018024810B5B4B00446C8220C
:101B7000002102A810F0A1F8104B22689A4201D06F
:101B800034B010BD4FF40032002302A8CDE9022387
:101B900007F0B4FB70B90A4BD3F8DC2042F04002E6
:101BA000C3F8DC20D3F8DC3003F040030193019B41
:101BB00034B010BDFFF7A0FBEDE700BF00180248EE
:101BC000004402580C4B7D200022062110B5D3F8AA
:101BD000F44082B044F00204C3F8F440D3F8F43087
:101BE00003F002030193019B04F012F97D2002B07F
:101BF000BDE8104004F048B90044025808B507F0A9
:101C00008BFAFEE7FEE700BFFEE700BFFEE700BF7E
:101C1000FEE700BF704700BF704700BF704700BFBE
:101C200004F0BAB805F068BE002003F00FBB00BF97
:101C3000FFF746BF0120704708B510F0E3F8162201
:101C400003464FF0FF301A6008BD00BF08B510F022
:101C5000D9F816230360FEE770B5161E07DD0C46A3
:101C60008D19AFF3008004F8010BA542F9D130467D
:101C700070BD00BF70B5161E07DD0C468D1914F837
:101C8000010BAFF30080AC42F9D1304670BD00BF0C
:101C90004FF0FF30704700BF4FF4005300204B60FF
:101CA000704700BF01207047002070470D49034670
:101CB0000D4A10B50D4C0868121B20B10344934225
:101CC00007D80B6010BD0A4C20460C6003449342B9
:101CD000F7D910F097F80C2203464FF0FF301A6046
:101CE00010BD00BF9406002400000824000200007C
:101CF00070160024DFF848D0FFF7A2F91148124906
:101D0000124A002302E0D458C4500433C4188C4251
:101D1000F9D30F4A0F4C002301E013600432A242B2
:101D2000FBD30D480D494FF0000201E040F8042BB1
:101D30008842FBD310F06CF8FFF74AFB70470000B5
:101D400000100020000000246C010024F420020890
:101D5000800100246C160024001000204473002031
:101D6000FEE700000346DFED1E7A0022DFED1D5A7C
:101D70001D49F7EE004ADFF878C0C5EE806A9FED96
:101D80001B7A483087FE277AC6FEA76A87FE647AE8
:101D9000B6EE005A83ED000AC6FEC56AC3E9082202
:101DA000C3ED0A7AC3ED0B7AC3ED0C7AC3ED0D7A5D
:101DB000C3ED0E7AC3ED0F7AC3ED107AC3ED117A3D
:101DC000C3ED257A9A8383ED017AC3ED026A83ED30
:101DD000037AC3F810C0C3ED065A596101F020B967
:101DE00000000000000048420000C841CDCCCC3DBE
:101DF000295C8FBD90ED006AB6EE007ADFED056AD2
:101E0000C0EE067AC7FEA67AC7FEC77AC0ED027A90
:101E1000704700BF00000000F7EE007A9FED047AE3
:101E200080FE070A80FE670A80ED030A704700BF44
:101E300000000000B7EE007ADFED047A30EE470ACA
:101E400020EE270A80ED040A704700BFCDCCCC3DC0
:101E5000DFED037A20EE270A80ED060A704700BF07
:101E600000004842F8B5F7EE005A0023F6EE007A7B
:101E70009FED287A284A044600F1340600F5FE75E5
:101E800000F50477C7EE006A9FED246A9FED247A7F
:101E90002DED028B9FED238AC7FE887AC7FEE57A77
:101EA00077EEA77A80ED000A86FE086AC6FE886A89
:101EB00086FE656AC6FEC76AC3619FED1B7A80ED28
:101EC000088A87FE087A80ED098A87FE657A80EDA8
:101ED0000A8A80ED0B8A80ED0C8A038380ED036A09
:101EE000C0ED016A426180ED047AC0ED027A3046AD
:101EF0004C3601F095F8A5EC018ABD4294ED000A3C
:101F0000F5D104F5D870BDEC028BBDE8F84001F0C6
:101F100087B800BF000048439A99993E9A99193FA3
:101F2000CDCCCC3E000000003333333FF7EE007AD7
:101F30009FED057A80FE070A80FE670A30EE000AF0
:101F400080ED020A704700BF0000000080ED050A26
:101F5000704700BFF7EE007A9FED047A80FE070A13
:101F600080FE670A80ED040A704700BF0000000091
:101F70000023C0E90033C0E90233C0E904337047ED
:101F800038B5DFED357A04469FED347A00239FEDB6
:101F9000345A00F158052DED028B9FED328AF7EE91
:101FA000008AC7FE887A87FE087AC7FEE87A87FE2D
:101FB000687A67EEA77A80ED000A67EE075AA38079
:101FC000C5EE006A284684ED0A8AC4ED085A84EDFD
:101FD0000B8AC6FE886A84ED098AC6FEE86AC4E9EF
:101FE0002B33C4ED036A84ED0C8A84ED0D8A84EDF5
:101FF0000F8A84ED0E8A84ED138A84ED128AC4ED73
:10200000057A84ED067A84ED148A84ED158A9FEDB5
:10201000167ADFED167A87FE087AC7FE887A87FE81
:10202000687AC7FEE87A84ED027AC4ED047AC4EDDA
:10203000077A00F0F5FF9FED0E0A284601F016F82A
:10204000B0EE680A284601F057F884ED298A84ED3D
:102050002A8ABDEC028B38BD3333333F9A99993EBF
:102060000000C84200000000CDCC4C3E9A99193FB8
:1020700000409C4538B52DED0C8BF7EE008AD0ED75
:10208000049AF2EE020A90ED038AF2EE006A90EDF5
:1020900006AAF0EE687A0446B0EE000A9FEDF27AE6
:1020A00069EEA00A0D46E8EE667AC7FE877A2AEE48
:1020B00027AA0EF019FFB1EE007AD4ED08AA94ED2C
:1020C00000BAD4ED05BA28EE078AD4ED027A28EEDC
:1020D000008AC8FE688A002D7DD12379002B7AD131
:1020E0006BEEA77AC4ED127A0FF0E4FBFEEE007AF5
:1020F00094ED0B8A07EE100A9FEDDC6A77EEC87A42
:10210000DFEDDB6AB8EEC77A6379E7EE067AA7EE11
:10211000A68A84ED0B8A002B7DD094ED037AF7EE2E
:10212000006AD4ED0A7AF6EE005A84ED097A77EE69
:10213000277AF4EEE67AF1EE10FAA8BF77EEE67AA7
:10214000B0EE676AC4ED0A7AAAEE086AF6EEC66ACD
:1021500036EE667AB4EEE57AF1EE10FA80F2778127
:10216000F1EE006AFFEE007AE7EE267AF0EEE76A1B
:102170009FEDC00AB7EE009A77EEA77AB6EE086A2E
:1021800076EE896A39EE4A9A37EE067A87EEA68AA3
:1021900027EE000A0FF034F89FEDB77AD4ED126AFB
:1021A000F0EE007AF0EE085A9FEDB46A30EE480A7D
:1021B00038EE478AA9EE008A26EE888AB0EEC87A01
:1021C00028EE258A37EE277AC8EE077AE6EE867A79
:1021D000F1EE677A28E1DFEDAA5A4FF07E529FEDCB
:1021E000A76A0023DFEDA76A9FEDA77AA7EEA56A8D
:1021F0006BEE266A22632BEE077A2371FDEEE66A08
:10220000BDEEC77A84ED106A84ED0E6AC4ED2B6AC8
:1022100084ED2C7A64E7D4F8B030D4ED0CCA94ED98
:102220000DCA002B40F00B81F7EE007A94ED077A8F
:10223000F1EE005ADFED954AB0EE0C6A94ED039A88
:10224000F0EE676A2CEE077A84ED099AB0EE675AD1
:10225000EAEEA56AF6EE005AA7EE065A94ED0A6A6F
:1022600066EE8B6A29EE059A84EEA67A89FE659A57
:1022700039EE069AB4EEE79AF1EE10FAA8BF39EEFD
:10228000679A37EEC77AF0EE497A6CEE87CAC4EDEA
:102290000CCAD4F8AC5094ED0EDAD4ED10AAC4ED0B
:1022A0000A7A002D00F00781013DC4F8AC5094ED8E
:1022B0000F7AAAEE089A9FED766A7CEECCCA3DEEC4
:1022C00047DAD4ED117AF6EE005A7AEEE7AAADEECF
:1022D000067AACEE86CAEAEE867AB6EEC96AF0EE07
:1022E000476A39EE467A84ED0DCAC4ED117AC4ED21
:1022F0000F6AB4EEE57AF1EE10FAC0F2D580F7EE8F
:10230000006AF1EE005AFFEE007A76EEC96A76EEC8
:10231000866AE6EEA57AB6EE086A9FED560AB7EE33
:10232000008AF0EEE76A37EE067A77EEA77A76EE65
:10233000886A27EE000A87EEA69A0EF061FFD4EDB8
:10234000147A002D9FED487A04F15800DFED504AD1
:1023500008FE077AD4ED156A37EE677ADFED4D5A3D
:10236000B6EE006A9FED445A38EE4A8AB5EEC07A5E
:10237000F1EE10FA36FE246AE7EE067AB0EE667ADF
:1023800030EE490A39EE45AA28EE008A37EEE66AB1
:10239000C4ED147A38EE0A8AA6EE257A37EEC70A1B
:1023A00084ED157A10F024FC94ED229A0FF082FA55
:1023B00094ED297AD4ED0F5A07EE900AF0EE473AE1
:1023C000DFED2A6AF8EEE77A9FED334A28EE258A98
:1023D00094ED2A6AB0EE085ADFED304AD7EEA63AFD
:1023E000D4ED117AF0EEC86AB0EE003A28EE058A14
:1023F0009FED225A69EEA79A76EE836AA3EE847A5D
:10240000C8EE267A84ED297A37EE464A77EE096AD5
:10241000A4EE246A36EEC67A84ED2A6AE5EE857A61
:10242000E7EE297AF1EE677A94ED130A77EEC07A37
:10243000A8EEA70A84ED130ABDEC0C8B38BDF5EEAF
:10244000007A013BC4F8B030B0EE679A21E7B7EEEE
:10245000005AF1EE005AFFEE007A76EE856A76EECB
:10246000C66AE6EEA57A81E60000000000000030B2
:102470006F12033BDB0FC9409A99193F9A99993E15
:102480003333333F6F12833AC364AA3AFFFFF942F2
:10249000CDCCCC3D0AD7233DCDCC4C3D0AD7A33B78
:1024A0000000484200004843F1EE006AFFEE007A67
:1024B000E7EE267A2FE7F9EE040AB0EE000A6BEE9B
:1024C000A00A0EF011FD5FED0A6A1FED0A7AF7EE21
:1024D000007A86EE8B6AC7EE0B6AB0EE677AA6EEDC
:1024E000407A77EEE67A2DEE07DA6AEEA7AA84ED57
:1024F0000EDAC4ED10AADAE6F7EE007A9FED047A60
:1025000080FE070A80FE670A80ED020A704700BF5E
:102510000000000090ED006AB7EE007ADFED056A7A
:10252000C0EE067AC7FEA67AC7FEC77AC0ED037A68
:10253000704700BF00000000F7EE007A9FED057ABB
:1025400080FE070A80FE670A20EE000A80ED050A79
:10255000704700BF00000000F7EE007A9FED047A9C
:1025600080FE070A80FE670A80ED060A704700BFFA
:1025700000000000F7EE007A9FED047A80FE070A63
:1025800080FE670A80ED070A704700BF0000000068
:10259000DFED287AB7EE005A9FED277A002387FEF9
:1025A000277A87FE457A27EE077ADFED246ADFED8A
:1025B000245A86EE806A9FED234AC5FEA75A86FEFE
:1025C000276AC5FEC55A86FE456A84FE274A10B5AD
:1025D0000446DFED1D6A383084ED000AC6FEA76AA6
:1025E000C4ED077AC4ED087AC6FEC56AC4ED097A5F
:1025F000C4ED0A7AC4ED0B7A6363C4ED0C7AC4EDC2
:10260000025A84ED036A84ED047A84ED054AC4ED30
:10261000066AA38000F004FD204694ED000A843091
:1026200000F0FEFC204694ED000AD030BDE81040DA
:1026300000F0F6BC00000000CDCCCC3D00004843CB
:102640009A99193F9A99993E3333333FB7EE007AFE
:102650009FEDEB6AB2EE040ADFEDEA6A2DE9F04184
:102660002DED0A8B9FEDE88A00F18408D0ED06AAD3
:102670000446D0ED037AB6EE00CAAAEE868A90ED43
:1026800000AA88FE268A88FE478A37EE487ADFED60
:10269000DF6A27EE800A054680FE4C0A40462AEE95
:1026A000000A67EEA67A0F46F1EEC78A04F1D0065B
:1026B000C7FECC9A94ED05BA3835D4ED04BA00F0D3
:1026C000D5FC94ED000A3046B1EEC89A29EE800A96
:1026D00000F0CCFCF0EE007AB0EE4C0A3046A8EEEA
:1026E000270A00F009FDD4ED037A94ED007AB0EEEC
:1026F000080A284667EE877A27EE800A00F0B6FCC3
:102700001FB92379002B00F0B38194ED056A4FF0D7
:102710007E53DFEDBF6A0022DFEDBE7A94ED025AF0
:10272000E6EE267ADFEDBC5A9FEDBC7A94ED006AA6
:10273000A5EE257ADFEDB36A2271B0EE668AE36218
:1027400067EE867AC4ED086AB0EE66CAC4ED076A21
:10275000FDEEE77A84ED097A84ED0A7AC4ED0D7A0C
:10276000AF4A6179137883F001031370002900F0F8
:102770000181D4ED029AD4ED057ADFEDA25A69EE1B
:10278000A79AC4ED0A9AC4ED0C9AC4ED099AB7EE63
:10279000005A94ED044AB1EE006A94ED037AF4EE27
:1027A000007ADFED986AF0EE452A9FED9E3A24EE1E
:1027B000066AC4ED0B5AF6EE004AF2EE003AE5EE78
:1027C000862A77EEC77AB4EEE4CAB0EE486A67EEBE
:1027D000A37AC7FEA67AC7FEC57A67EEA77AF1EE9E
:1027E00010FAF0EE003AB4EE648AF8EE004A27EEF2
:1027F000227A67EE847A74FEA64A76FEA36ADFED3B
:102800008A3AF1EE10FAA7EE036AF4EEE37A37EEB5
:102810000C7A74FEA66AF1EE10FA84ED077A84ED64
:10282000086A40F38480DFED815A67EEA57AF0EE06
:10283000455AE7EEA65AB4EEE57AF1EE10FA03DB5C
:1028400035EE477A84ED077AB4EEE56AF1EE10FAD8
:1028500080F20781F6EE007AB4EEE77AF1EE10FA34
:10286000C0F28180F7EE006ADFED767AF1EE005A71
:1028700036EEC77AE7EE257AB0EEE77A9FED6C5A2E
:10288000F7EE006A9FED6B0A77EEA77AF6EE005A34
:1028900037EE267AB4EEE56AC7EE874AF1EE10FA13
:1028A000A4EE850AC0F2D68076EEC66ADFED657AC0
:1028B000B1EE007AE6EE877AB0EEE77A2846B7EE18
:1028C000006A77EEA77AF5EE006A37EE067A68EED0
:1028D000A98A87EE876AA6EE260A28EE800A10F0FB
:1028E00087F994ED1A8A0EF0E5FF00EE100A3046E3
:1028F000BAEEE00A10F07CF994ED400A404610F080
:1029000077F9D4ED0A7A94ED0B6AB0EE480A94EDAB
:102910002E7ADFED456A77EE867A37EE267A67EE15
:10292000877AA7EE890ABDEC0A8BBDE8F081B4EE88
:10293000C57AF1EE10FA03DB37EE457A84ED077ABB
:10294000F7EE007AB4EEE76AF1EE10FA82DB36EECB
:10295000676AF6EE007A84ED086AB4EEE77AF1EE83
:1029600010FABFF67FAFF1EE006ADFED367AE7EEE0
:10297000267A81E7D4ED099AB1EE0C7ADFED247A5C
:10298000F4EEE79A6AEE87AAF1EE10FA00DC1BB3C8
:10299000F7EE00CADFED287AF2EE086A9FED2B7A97
:1029A000F0EE6A0A3BEE6C6A6BEE277AEBEEE60A13
:1029B000F0EE6C6AB0EE000AEBEE066AE6EEA70AED
:1029C00060EE870A0EF090FA9FED1C7AC7EE0A7A45
:1029D000E7EEC0CA69EEAC9A636BC4ED099A002BAE
:1029E0004BD0013B6363DFED166AF7EE005AD4ED7E
:1029F0000B7A86EE8A7A75EEC75A65EEA75AC6E656
:102A0000CDCC8C3F00000000CDCC4CBD00000C4272
:102A10008FC2F53C0AD7233D3333333F9A99993E11
:102A200014000024F628BC3FCDCCCC3DCDCCCC3C12
:102A30009A99193FCDCCCCBD000090C25655854225
:102A40006DDB0E436666A6BF000070C2ABAAAA3D4E
:102A50000000C842B1EE007A5FED067AE6EE077A32
:102A60002AE7F7EE007A37EEC66A84ED086AF1E6E7
:102A700094ED07CA94ED088A72E65FED0D7AB0EE28
:102A8000000A5FED0E0ADBEE27AAD4ED0ABA6AEE61
:102A9000A00A0EF029FA5FED126AF7EE007A86EED0
:102AA0008A7AE7EE407A6BEEA7BAC4ED0ABA9AE7E3
:102AB000F7EE007A9FED047A80FE070A80FE670A2F
:102AC00080ED020A704700BF00000000DFED037ACE
:102AD00080FE270A80ED050A704700BF0000000055
:102AE000F7EE007A9FED047A80FE070A80FE670AFF
:102AF00080ED060A704700BF000000008B69B6EE4B
:102B0000005B9FED3B6A002B10B4B8BF03F5803328
:102B100043F6095404FB03F301339CB21B04354B09
:102B200048BFA4F5803403EB021C8C611201D0ED88
:102B3000056ADCED027A86EEA77AD1ED026AF8EE3C
:102B4000E66AB7EEC77A37EE057BBDEEC77BD1EDFF
:102B5000007AF8EEE77A81ED077A77EEE67AD1ED42
:102B6000036AF8EEE66AE6EEC67AF5EEC07AF1EEB2
:102B700010FA0AD5D1ED016AF8EEE66A77EEA67A88
:102B8000F5EEC07AF1EE10FAF8D4D0ED054A134410
:102B90009FED194AB6EE003BC7EEA45AD3ED016A89
:102BA00007EE904AD0ED032A93ED005A5DF8044BEE
:102BB00066EE846A9FED114AB8EEE76AF8EEC77ACE
:102BC00066EEA26AB7EE007AA6EE265A75EEC56AE0
:102BD00086EEA76AA4EE867A27EE047AB7EEC77A65
:102BE00037EE037BBDEEC77B81ED047A704700BFF3
:102BF000000080319C2C0108000000380000804D4E
:102C00002DE9F047B7EE007A59494FF00009B7EEC9
:102C1000021B4FF0000A574AF0EE477A012300F5F5
:102C2000B275554F554EC8462DED048BF0EE409AC7
:102C30000160DFED538A00F124019FED528AB0EE6E
:102C4000694AC0ED029AC0ED059A426080ED037AB0
:102C5000C0F810A080ED067AC0F81CA003629FEDBA
:102C6000420B05EB890327EEA85A0024B6EE006B51
:102C70004B624246D7ED015AD7ED004AB7EEE53A2E
:102C80004C61B7EEE47A0C6025EE255AA3EE017B89
:102C9000B7EEC79B29EE042AB7EEC22A32EE002B0C
:102CA000BDEEC22B81ED012AF8EEC25A97ED037AF0
:102CB000B7EEC77A37EE067BBDEEC77BF0EE647ADF
:102CC000F8EEC73A81ED067AE5EE237AE7EEC45ACC
:102CD000B6EEE57A35EEC77AFDEEE55A27EE087ACC
:102CE000C1ED025AB7EEC77A37EE067BBDEEC77B61
:102CF00081ED037AFFF702FF12EE103AC1F820A02F
:102D0000A34209DD22464B6A03EB82030132C3F87A
:102D100000A04B689A42F6DB29EE897A08F1010897
:102D2000B8F1080FB7EEC77A37EE007BBDEEC77B70
:102D300017EE103A09EB83090AD0B14501F12801D9
:102D400007F1100709DCD0ED037A90ED054A88E71A
:102D5000BDEC048B0020BDE8F087BDEC048B0120A6
:102D6000BDE8F087AFF30080000000000080304035
:102D7000EC51783F00401C469C2C010878820100F1
:102D8000000000380000804D2DE9F0411E462DED79
:102D9000048B036A002B40F33081D0ED017A80462A
:102DA00090ED077A0C46154690ED060AF4EE477A48
:102DB000F1EE10FA40F0068198ED117ABFEE002A8C
:102DC000D8ED1B7A002798ED254A77EE877AD8ED63
:102DD0002F4A98ED395AB5EE007AD8ED435A77EE7E
:102DE000847A98ED4D6AD8ED576AD4ED008A44464E
:102DF00077EEA47A95ED009ADFED850ADFED859AEE
:102E000077EE857AB0EE608A77EEA57A9FED7E1B2D
:102E100077EE867A77EEA67AA7EE879AE7EE878A2C
:102E20000CE0236C70EEA70A013B002B236440F3F7
:102E3000898001372834082F00F0908094ED117AB2
:102E400017F00100626AA36C48FE897A77EEC77AB0
:102E5000A56A03EB8203C3ED007A626A236B013239
:102E6000E16AAA42A8BF521BB3F1805F626205DB30
:102E700001EB237123F07043C4E90B13A94201DB7A
:102E8000491BE16207EE903AB0EE426AB7EE007A73
:102E90000029F8EEE75AA26CF6EE004AF0EE087A46
:102EA00065EEA95AB0EE425AA5EEA56A35EE877ACC
:102EB000A7EE245AB7EEC66A26EE016BB7EEC66BD4
:102EC00066EE277A35EE465AB0EE674A77EEE57A37
:102ED00097EE244A52DDA5F1020C8C456FDD6FF0B0
:102EE00040450D4402EB850292ED003AD2ED016AB5
:102EF000D2ED023AD2ED034A66EEA77A626B94ED08
:102F0000117A1A44E3EE057A226398ED005AE3EE53
:102F1000847AE4EE867AE7EEA56AF0EE477AE5EE8B
:102F2000667A67EE807AE5EE267AC4ED117A00289B
:102F30007FF477AF236C38EE278A013B002B2364A4
:102F40003FF777AF3A46013704F124014046FFF7D7
:102F5000D5FD082F04F128047FF470AFDFED2E7A41
:102F600000200A9B28EE278A60EEA70A86ED008AD9
:102F7000C3ED000ABDEC048BBDE8F081013905EB1F
:102F8000010C0CF101018D4202EB8C0CD8BF491BE6
:102F90009CED003A02EB810C01318D42DCED006AC0
:102FA000D8BF491B02EB810C01318D42DCED003AA8
:102FB000D8BF491B02EB8102D2ED004A9CE701F128
:102FC000FF3CE0E79FED157AC0ED077A67EE877A60
:102FD00090ED050A87EE800A0EF0D6F9F0EE007A41
:102FE000BFEE007A37EEC00AA0EE007AF1EEC77AA3
:102FF00030EE670A88ED060ADEE6BDEC048B0120A0
:10300000BDE8F081AFF30080555555555555C53F86
:1030100000000000000080313333B33EDB0FC940B5
:10302000DFED107A00234FF07C524FF07A5160EEC2
:10303000277ADFF834C080ED000A8260C0F804C04F
:10304000C2604264016143618361C36103624362A0
:103050008362C362036403634363C3638363C0ED3A
:10306000127A7047ABAAAA3E0000484310B52DED76
:10307000048BB6EE009AD0ED126ADFED1D7AF5EE04
:10308000008AC0FE277AC7FEE67A67EE896A90ED6D
:10309000007AC0ED017A04469FED160AB7EE008A69
:1030A000C6EE877AC7FEE87A27EE800A0EF0A8F807
:1030B000F0EE407AF0EE680A94ED020AC8EE278A34
:1030C00077EEA77AC4ED047AE7EEC98A0DF00CFF1B
:1030D00038EE408AF0EE007A38EE088A88FE688A78
:1030E00088FE678A84ED058ABDEC048B10BD00BFA5
:1030F000BD378635DB0F494010B52DED048BF0EE62
:10310000009AD0ED047AB6EE007A0446B7EE008A53
:10311000DFED126A89EEA79AC0FE268AC8FEC88A29
:10312000C0ED028AB0EE680AF5EE000AA7EEC79A73
:103130000DF0DAFE38EE408AD4ED117A67EEA87A07
:1031400038EE088A89FE699AC4ED037A88FE498AB6
:1031500084ED058ABDEC048B10BD00BF00000000AB
:10316000037810B504462DED068BD0ED078A90ED5F
:10317000089A072B00F28681DFE813F054008C00D8
:103180009B0085001501A200F6000800DFEDBF9A44
:10319000F7EE007AD0ED046ABFEE007A28EEA90AB5
:1031A000F4EEE86A69EE299AF1EE10FAB4EEE90A53
:1031B00037FE878AF1EE10FA00F1598137EEE97A8D
:1031C000B4EEC70AF1EE10FA00F31681D4ED037ADB
:1031D000B7EE00AA30EE670AF0EE4A0A30EE0A0AAD
:1031E0000DF00AFEB4EEE90AF1EE10FA00F11181D9
:1031F0007AEE697AB4EEE70AF1EE10FA0DDD30EE00
:103200004A0AF0EE007A38EE4AAA80EE297AB0EE49
:103210004A8A77EE277AA7EE678ADFED9D7A28EE55
:10322000270A03E0B0EE680A0DF0EAFF78EE897A2B
:103230009FED987AF4EEC77AF1EE10FA40F3C08071
:1032400077EEC77A012377EEC98A9FED937A84F8E7
:103250002D30F4EEC77AD4ED016AC4ED077A20EE82
:10326000260AF1EE10FAF4EEC78AACBF0123002360
:10327000F1EE10FA03F0010358BF002384F82C305C
:10328000BDEC068B10BDBFEE000ADFED847AA8EE20
:10329000A70ACBE7BFEE000A9FED807AF6EE007A30
:1032A000A8EE870AB0EEC00A30EE670A30EE000AD8
:1032B000BCE7B7EE000ADFED797AA8EEE70AB5E7DA
:1032C000DFED757AB7EE007A9FED708AFFEE006A47
:1032D000F4EEE78A68EE887A29EE088AF1EE10FAB1
:1032E000F4EEC87A54BFF0EE669AF0EE479AF1EE2B
:1032F00010FA00F1B18077EE486AF4EEE67AF1EE6A
:1033000010FA6CDCB6EE000AF7EE000A37EE800A1F
:103310000DF072FDB4EEC80AF1EE10FA00F18480EF
:10332000F7EE007A37EEC87AB4EEC70AF1EE10FA7B
:103330000DDD30EE670AB0EE007A79EEE77AC0EE86
:10334000086A36EE877AE6EEC77AF0EE679AB7EE4D
:10335000000AD4ED097A30EE490A20EE270AA9EED8
:10336000890A84ED090A61E7DFED487A28EEA77A39
:1033700069EE277A37EE076AB4EEE77AF1EE10FAD3
:103380005FD4F7EE006A76EEE75AB4EEE57AF1EE36
:1033900010FA17DCDFED427AB7EE000A30EE460A8B
:1033A00030EE270A42E790ED047AB7EE000AFFEE0E
:1033B000007AB4EEE87AF1EE10FA30FE270A35E72B
:1033C000002342E737EE667AF0EE005A87EE275A7E
:1033D000F0EE667A35EE257AE5EE077ADCE777EEF1
:1033E000C75AF0EE006A85EE886A76EE266AA6EE87
:1033F000267A79EE879A85E730EE676AB0EE007A32
:10340000C6EE296A36EE877AE6EE877A38EE278AA4
:10341000DCE680EE297AF0EE007A77EEC77AA7EE46
:1034200067AA38EE0A8AF8E6C0EE086AB0EE007ABB
:10343000F7EE007A37EE667AE6EEC77A79EEA79A6B
:1034400085E7C7EE276AB0EE007AFFEE007A37EE26
:10345000667AE6EE877A9FE787EE886AB0EE007AB2
:1034600037EE467AE6EE076A79EEA69A4AE7C0EEAC
:10347000296AF0EE007A77EEE67AA6EEA77A38EEC1
:10348000078AA3E69FED060AD0E600BF83F9223E35
:10349000F4FD343FDB0FC940DB0F494083F9A23E06
:1034A00000000000DFED047A20EE270AD0ED067A56
:1034B00020EE270A704700BFDB0FC9400023024AF5
:1034C0004360036082607047A4707D3FD0ED007A56
:1034D00090ED017AD0ED026A80ED000AD6EE877A8F
:1034E00030EE270A80ED010A704700BFDFED077A52
:1034F000002380ED000A60EE277A4360C0ED020AE7
:1035000087EEA07A80ED037A704700BFDB0FC940D9
:10351000D0ED017A0346D0ED036A9FED097A77EE8C
:10352000A67AF4EEC77AF1EE10FA03DA0020C3EDC2
:10353000017A704777EEC77A0120C3ED017A7047B0
:10354000DB0FC940F8B52B4C0D460B684FF6FF72E8
:103550002146074663600023E36001232360A360E4
:1035600007F058FE002842D102F022FC064602F085
:103570001FFC8642FBD002232A6801261D492360D6
:103580000023626038464FF6FF72A660E36007F0E2
:1035900041FE60BB1749D5E90032E0603846C4E916
:1035A000002308234FF6FF72A36007F033FEF0B943
:1035B00010493846D5E9033213436A691343AA69AF
:1035C0001343EA691343042222602A68E360C4E9D2
:1035D00001264FF6FF7207F01DFE40B9A968384674
:1035E00007F038FE003818BF01204042F8BD4FF008
:1035F000FF30F8BD9806002410B404690089A44681
:103600005DF8044B604700BF10B4C4680089A4464D
:103610005DF8044B604700BF01294FF0020330B54D
:1036200008BF4FF4007183B018BF102100F11805D6
:103630000DF10602ADF8061028464FF4846101F042
:10364000E7F8044602230DF1060240F22241284623
:1036500001F0DEF82044003818BF0120404203B0DA
:1036600030BD00BF2DE9F041022982B0054600F1CE
:1036700018060DF1060700F00881A1F10404B4FA60
:1036800084F46409002C40F00081012900F0CC8012
:1036900040F60F72022305213046ADF806203A4667
:1036A00001F0B6F8012304463A4640F20161ADF854
:1036B00006303046022301F0ABF8044402233A46B8
:1036C00040F20261304601F0A3F8022304443A4676
:1036D00040F204613046ADF8063001F099F8044438
:1036E0004FF4407802233A4603213046ADF8068075
:1036F00001F08EF8002304443A462221ADF806304A
:103700003046022301F084F8044402233A46232180
:10371000304601F07DF8022304443A463621304613
:10372000ADF8068001F074F843F2030304443A460E
:103730000121ADF806303046022301F069F8052377
:1037400004443A465121ADF806303046022301F0D8
:103750005FF843F2033304443A460121ADF80630E2
:103760003046022301F054F8222304443A466021F3
:10377000ADF806303046022301F04AF849F62573C9
:1037800004443A464C21ADF806303046022301F09D
:103790003FF86B690444984780466B699847A0EBF3
:1037A00008030E2BF9D901233A462D213046ADF8F6
:1037B0000630022301F02CF8022304443A462E215D
:1037C000304601F025F84FF44C7304443A46032187
:1037D000ADF806303046022301F01AF833230444D2
:1037E0003A465421ADF806303046022301F010F875
:1037F0006B690444984780466B699847A0EB0803BF
:10380000B3F5807FF8D9EE2102233A463046ADF871
:103810000610602100F0FCFF2044003818BF012092
:10382000404202B0BDE8F08140F60C433A46052123
:103830003046ADF80630022300F0EAFF02233A4694
:1038400040F20161ADF806400446304600F0E0FF6A
:10385000022304443A46984640F20261304600F0A2
:10386000D7FF044443463A4640F204613046ADF87F
:10387000068000F0CDFF044443463A4640F205611D
:10388000304600F0C5FF04442AE74FF00008022349
:103890003A4601213046ADF8068000F0B9FF40F20B
:1038A000033304463A460521ADF80630304602237C
:1038B00000F0AEFF012304443A4640F20161ADF846
:1038C00006303046022300F0A3FF044402233A46A8
:1038D00040F20261304600F09BFF044402233A4666
:1038E00040F204613046ADF8068000F091FF0223FB
:1038F00004443A4640F20561304600F089FF4FF437
:10390000807304443A462D21ADF806303046022338
:1039100000F07EFF022304443A462E21304600F098
:1039200077FF4FF4014304443A464FF48871ADF8F1
:1039300006303046022300F06BFF6B690444984761
:1039400080466B699847A0EB0800B0F5967FF8D3E6
:10395000002102233A463046ADF806104FF4846148
:1039600000F056FF204458E745F222631830994290
:1039700000B583B02BD01AD842F61133994229D022
:10398000B1F57A5F0DD14FF0330C02230DF1060231
:103990004FF40471ADF806C000F03AFF03B05DF8D3
:1039A00004FBB1F5FA5F18D14FF0030CEDE74AF6CE
:1039B0004443994214D00C4B994202D14FF0A30CCE
:1039C000E3E7B1F5FA4F08D14FF0630CDDE74FF0B4
:1039D000430CDAE74FF0130CD7E74FF0830CD4E732
:1039E0004FF0730CD1E700BF0077010030B50446FB
:1039F00083B00D4654F8183B98470DF10601204658
:103A000000F026FFBDF806302B6003B030BD00BFCC
:103A100010B5012982B0144600F118000DF106011D
:103A200010D000F0EBFFE0B9BDF8063064210E4A7B
:103A300001FB03F3A2FB0323C3F3C713002023708E
:103A400002B010BD00F012FF58B96421BDF8062085
:103A5000064B01FB02F283FB02131344C3F347132B
:103A6000ECE74FF0FF30EBE73BC71A898320088271
:103A700089B2183008B500F05FFF003818BF012088
:103A8000404208BD10B582B000220C4618300DF13E
:103A90000601ADF8062000F075FF68B9BDF80630E4
:103AA000022B06D0032B04D0A3F10103B3FA83F356
:103AB0005B09236002B010BD4FF0FF30FAE700BF92
:103AC00089B2183008B500F0FBFE003818BF01209D
:103AD000404208BD10B582B00C4618300DF1060109
:103AE00000F014FF20B9BDF80630236002B010BD0D
:103AF0004FF0FF30FAE700BF10B582B000230C464C
:103B000018300DF10601ADF8063000F0C3FE0028B4
:103B100032D1BDF806300A2B09D8DFE803F00A0FCE
:103B2000081419081E2328080600154B236002B04C
:103B300010BD4FF4FA53236002B010BD42F61133AA
:103B4000236002B010BD4FF47A53236002B010BD61
:103B500045F22263236002B010BD4FF4FA432360A4
:103B600002B010BD4AF64443236002B010BD4BF6CC
:103B70008033236002B010BD4FF0FF30D7E700BFA5
:103B8000007701000021183008B500F051FE003820
:103B900018BF0120404208BD10B5102182B000F1CD
:103BA000180402230DF10602ADF8061020464FF46A
:103BB000846100F02DFE84462046022364460DF108
:103BC000060240F2224100F023FEC44214BF4FF02F
:103BD000FF30002002B010BD10B5102182B000F1FE
:103BE000180402230DF10602ADF8061020464FF42A
:103BF000846100F00DFE84462046022364460DF1E8
:103C0000060240F2224100F003FEC44214BF4FF00E
:103C1000FF30002002B010BD30B5012183B04FF459
:103C2000007200F118040223ADF80410ADF806206C
:103C30004FF484610DF10602204600F0E9FD0546CF
:103C400002230DF1060240F22241204600F0E0FD81
:103C5000C5420BD1022301AA2046194600F0D8FD27
:103C6000003818BF0120404203B030BD4FF0FF3094
:103C7000FAE700BF70B54FF4007282B000F118058A
:103C800002230E46ADF806204FF484610DF10602C2
:103C9000284600F0BDFD044602230DF1060240F265
:103CA0002241284600F0B4FD241818BF4FF0FF341D
:103CB000012E3DD04FF4007202234FF48461284658
:103CC000ADF806200DF1060200F0A2FD0444022327
:103CD0000DF1060240F22241284600F099FD00262F
:103CE000044402230DF106022D212846ADF806609A
:103CF00000F08EFD044402230DF106022E21284619
:103D000000F086FD022304440DF106020521284639
:103D100000F07EFD03460DF1060231461C442846A4
:103D2000022300F075FDC44214BF4FF0FF34344647
:103D3000204602B070BD00BFF0B500F1180483B09A
:103D40004FF4007502230DF106024FF48461204602
:103D5000ADF8065000F05CFD0DF1060207460223A7
:103D600040F22241204600F053FDADF806500546D2
:103D70000DF1060202234FF484616D42204600F0EB
:103D800047FD0DF10602BD420CBF0646461E02234A
:103D900040F22241204600F03BFD002785190DF13D
:103DA000060202232D212046ADF8067000F030FDFA
:103DB00005440DF1060202232E21204600F028FDC5
:103DC0000DF10602054402230521204600F020FDE6
:103DD00003460DF1060239461D442046022300F039
:103DE00017FDC54214BF4FF0FF30384603B0F0BD99
:103DF0000129F0B5144683B000F1180543D13E2ADD
:103E000000F28B80002A6DD0102202234FF48461CF
:103E10002846ADF806200DF1060200F0F9FC022359
:103E200007460DF1060240F22241284600F0F0FC60
:103E3000064644F4A074022376420DF106021C21CA
:103E40002846ADF8064000F0E3FCBE420CBF044635
:103E5000441E02230DF106021D21284600F0D8FC65
:103E6000022304440DF106022621284600F0D0FC6E
:103E7000014602230DF106020C442846272100F0DA
:103E8000C7FC204428E042F4807402230DF10602AE
:103E90004FF480612846ADF8064000F0B9FC0446B6
:103EA00002230DF1060240F20141284600F0B0FC69
:103EB000022304440DF1060240F20441284600F0BA
:103EC000A7FC014602230DF106020C44284640F2ED
:103ED000054100F09DFC2044003818BF01204042FD
:103EE00003B0F0BD4FF400710DF106020223284625
:103EF000ADF806104FF4846100F08AFC04460223FA
:103F00000DF1060240F22241284600F081FC201803
:103F100018BF4FF0FF3003B0F0BD102102230DF1A8
:103F200006022846ADF806104FF4846100F070FCDC
:103F300002230DF10602074640F22241284600F016
:103F400067FC044640F27F130DF1060264421C2117
:103F5000ADF806302846022300F05AFCBC420CBFE4
:103F60000646461E02230DF106021D21284600F0DA
:103F70004FFC0223841975E72DE9F04300F1180482
:103F800085B04FF003080F46022303AA4FF4817156
:103F900005462046ADF80C8000F03AFC00230646AA
:103FA00003AA40F61701ADF80C302046022300F0BA
:103FB0002FFC0223064403AA4FF48171204600F02F
:103FC00027FC6C23064403AAADF80C3039210223E8
:103FD000204600F01DFC3B680644002B00F02582C3
:103FE0001323ADF80C30022303AA0121204600F070
:103FF0000FFC6B690644984780466B699847A0EBB5
:104000000803312BF9D97B68032B00F22482DFE807
:1040100013F03700040022020F0240F60C4303AAFB
:1040200005212046ADF80C30022300F0F1FB0023FF
:1040300006EB000803AA40F201610226ADF80C303D
:104040002046022300F0E4FB8044334603AA40F2FA
:104050000261204600F0DCFB8044ADF80C600223D6
:1040600003AA40F20461204600F0D2FB8044022300
:1040700003AA40F20561204600F0CAFB08EB0006E7
:104080003B68013B042B47D8DFE813F00500A6028C
:104090005202460008024FF4437303AA042120464B
:1040A000ADF80C30022300F0B3FBDB2306EB000875
:1040B00003AA4FF48861ADF80C302046022300F0CB
:1040C000A7FB022346F2503280441E461946ADF843
:1040D0000C20204603AA00F09BFB8044334603AA31
:1040E00040F206612046ADF80C6000F091FB3346CB
:1040F000804403AA40F20761204600F089FB334662
:1041000080440D22ADF80C204FF4E06103AA204654
:1041100000F07EFB08EB0006B9682846FFF724FC98
:104120003B680644052B00F08F82B989204600F0D9
:1041300003FC0221002818BF013E204600F0C0FB0E
:104140000121002818BF013E204600F031FC002369
:10415000064403AA40F20231ADF80C302046022397
:1041600000F056FB0A23064403AA4FF40271ADF88F
:104170000C302046022300F04BFB0123064403AA27
:10418000ADF80C304FF400710223204600F040FBE4
:104190007B680644002B00F0ED80022B05D1D7F898
:1041A0000080B8F1000F00F07A824FF440780223CB
:1041B00003AA03212046ADF80C8000F029FB002360
:1041C000064403AA2221ADF80C302046022300F059
:1041D0001FFB0644022303AA2321204600F018FBFC
:1041E0000223064403AA36212046ADF80C8000F0D5
:1041F0000FFB43F20303064403AA0121ADF80C3080
:104200002046022300F004FB3B68064403AA052B6A
:104210004FF0510120460CBF40F205230523ADF8B5
:104220000C30022300F0F4FA43F20333064403AAED
:104230000121ADF80C302046022300F0E9FA2223D8
:10424000064403AA6021ADF80C302046022300F09A
:10425000DFFA49F62573064403AA4C21ADF80C3069
:104260002046022300F0D4FA6B6906449847804642
:104270006B699847A0EB08000E28F9D9012303AA1F
:104280002D212046ADF80C30022300F0C1FA0223A4
:10429000064403AA2E21204600F0BAFA4FF44C73CC
:1042A000064403AA0321ADF80C302046022300F097
:1042B000AFFA3323064403AA5421ADF80C3020464C
:1042C000022300F0A5FA6B690644984780466B69A3
:1042D0009847A0EB0800B0F5807FF8D9EE2303AA39
:1042E00060212046ADF80C30022300F091FA06441C
:1042F0004FF0C009022303AA4FF4C2612046ADF873
:104300000C9000F085FA0644022303AA40F21161E2
:10431000204600F07DFA4FF010080644022303AA5D
:104320004FF484612046ADF80C8000F071FA064429
:10433000022303AA40F212612046ADF80C9000F06F
:1043400067FA0644022303AA40F21361204600F0F4
:104350005FFA0644022303AA40F222412046ADF848
:104360000C8000F055FA06443A7C28460121FFF7FC
:104370003FFD06443B68002B50D05A1E012A40F2F4
:104380006C81052B00F0DD810B2303AA1821204648
:10439000ADF80C30022300F03BFA0223064403AAD6
:1043A0001A21204600F034FA4FF4C053064403AA01
:1043B000ADF80C304FF482610223204600F028FA59
:1043C00006443A7C02234FF48061204642F4807216
:1043D000ADF80E200DF10E0200F01AFA0546022388
:1043E0000DF10E0240F20141204600F011FA0223C5
:1043F00005440DF10E0240F20441204600F008FA97
:1044000003460DF10E0220461D4440F205410223F1
:1044100000F0FEF94042A84218BF013E301E18BF0E
:104420000120404205B0BDE8F083ADF80C80DAE52C
:10443000396840F60F7303AA0529ADF80C304FF028
:10444000020300F065810521204600F0E1F9012317
:1044500006EB0008EEE540F2033303AA05212046EF
:10446000ADF80C30022300F0D3F9012306EB00086D
:1044700003AA40F20161ADF80C302046022300F09F
:10448000C7F90223804403AA40F20261204600F0EB
:10449000BFF900238044ADF80C30E0E540F63C73F2
:1044A00003AA04212046ADF80C30022300F0B0F935
:1044B000DB2306EB000803AA4FF48A61ADF80C3049
:1044C0002046022300F0A4F90223804403AA4FF4FB
:1044D0008861204600F09CF9022346F2A032804415
:1044E0001E461946ADF80C20204603AA00F090F9AC
:1044F0008044334603AA40F206612046ADF80C60C2
:1045000000F086F98044334603AA40F20761204652
:1045100000F07EF98044334603AA4FF4C16120467F
:1045200000F076F93346804403AA40F20961E3E5DE
:10453000112303AA28212046ADF80C30022300F0F5
:1045400067F9352306EB000803AA2921ADF80C30E2
:104550002046022300F05CF90223804403AA2A21AA
:10456000204600F055F940F20333804403AA0421A9
:10457000ADF80C302046022300F04AF9DB238044DA
:1045800003AA4FF48861ADF80C302046022300F0F6
:104590003FF9022346F2503280441E461946ADF8D8
:1045A0000C20204603AA00F033F98044334603AAC6
:1045B00040F206612046ADF80C6000F029F9804415
:1045C000334603AA40F20761204600F021F9334642
:1045D000804448F20D0295E54FF4436303AA042199
:1045E0002046ADF80C30022300F012F9DB2306EB75
:1045F000000803AA4FF48A61ADF80C30204602236C
:1046000000F006F902234FF4C04280441E461946CA
:10461000ADF80C20204603AA00F0FAF88044334697
:1046200003AA4FF4C1612046ADF80C6000F0F0F829
:104630008044334603AA40F20961204600F0E8F8BE
:10464000334680440E225DE50021204600F074F9D7
:104650000321002818BF013E6FE5132303AA01219F
:104660002046ADF80C3002231D4600F0D1F803AA15
:1046700006442B464FF4C4612046ADF80C5000F0C0
:10468000C7F84FF4605106442B46ADF80C1003AA4E
:1046900040F21141204600F0BBF8064491E64FF489
:1046A00080722D212046DFF82091ADF80C2003AA5E
:1046B000019300F0ADF8019B064403AA2E21204689
:1046C00000F0A6F899F800200644019B012A62D068
:1046D00048F208124FF488712046ADF80C2003AA66
:1046E00000F096F86B690644984780466B699847D6
:1046F000A0EB08003128F9D9002303AA4FF4846104
:104700002046ADF80C30022300F082F80644EFE5B5
:10471000204600F07DF8032306EB000803AA40F2D0
:104720000161ADF80C302046022300F071F880449E
:10473000022303AA40F20261204600F069F8804497
:104740008DE4132303AA01212046ADF80C30022387
:104750001D4600F05DF803AA06442B464FF4C461E1
:104760002046ADF80C5000F053F84FF4C053064407
:1047700003AA4FF48261ADF80C3020462B4600F0BE
:1047800047F806442B4603AA40F21141204600F0A8
:104790003FF8064415E64FF401424FF48871204675
:1047A000ADF80C2003AA00F033F86B6989F800809B
:1047B0000644984780466B699847A0EB0800B0F51F
:1047C000A27FF8D998E700BF15000024C0B10B689C
:1047D00030B403604A680C4D42600A890B4C028178
:1047E000CA68C2600A6902614A6900624261C0E93E
:1047F00006450BB130BC18474FF0FF3030BC704756
:104800004FF0FF30704700BFF93500080936000847
:1048100010B5144682B0B4F800C00DF10602046869
:104820009CFA9CFC8068ADF806C0A04702B010BDA1
:1048300010B582B091FA91FC046802230DF10602D2
:104840000021ADF806C08068A04702B010BD00BFCF
:1048500038B50C46022300212246D0E90150A84772
:10486000002802DB23885BBA238038BD38B50C46AC
:1048700002231C212246D0E90150A847002806DB6C
:1048800023885BBA9AB203D102F03F02228038BD7E
:10489000238038BD38B50C4602234FF404712246FC
:1048A000D0E90150A847002806DB23885BBA9AB2FA
:1048B00003D1C2F30312228038BD238038BD00BF6C
:1048C00070B5002582B004460223ADF8045001AA59
:1048D0000D4680684FF440716668B047A0B9BDF8D6
:1048E00004200223266852BAA06822F0180242EA85
:1048F000C50189B24ABAADF804104FF44071ADF861
:1049000006200DF10602B04702B070BD38B50C4666
:1049100002234FF440712246D0E90150A8470028F5
:1049200006DB23885BBA9AB203D1C2F3C1022280AC
:1049300038BD238038BD00BF70B5002582B0044665
:104940000223ADF8045001AA0D4680684FF440716F
:104950006668B047A0B9BDF804200223266852BAA1
:10496000A06822F0600242EA451189B24ABAADF865
:1049700004104FF44071ADF806200DF10602B04767
:1049800002B070BD38B50C4602234FF44071224688
:10499000D0E90150A847002806DB23885BBA9AB209
:1049A00003D1C2F34112228038BD238038BD00BF3D
:1049B00070B5002582B004460223ADF8045001AA68
:1049C0000D4680684FF440716668B047A0B9BDF8E5
:1049D00004200223266852BAA06822F4804242EAE8
:1049E000853189B24ABAADF804104FF44071ADF880
:1049F00006200DF10602B04702B070BD38B50C4676
:104A000002234FF480612246D0E90150A8470028D4
:104A100005DB23885BBA9AB202D1D2B2228038BDBC
:104A2000238038BD134B144970B5D3F8E02086B00D
:104A300051F82050012442F48072C3F8E020D3F8EA
:104A4000E0300E4A03F48073039452F82060009320
:104A500003230099304601A90493CDE9015402F0E3
:104A600037FD30462246A9B202F024FF002006B0EE
:104A700070BD00BF004402581C2D01082C2D0108F8
:104A800003460649002231F8231010B5044C54F8AF
:104A9000200002F00FFF002010BD00BF1C2D0108F8
:104AA0002C2D01082DE9F043BA4C99B002210626BD
:104AB000D4F8F0300546B84843F48003C4F8F03029
:104AC000D4F8F03003F480030193019BD4F8E03074
:104AD00043F01003C4F8E030D4F8E03003F01003E2
:104AE0000293029BD4F8E03043F01003C4F8E030A6
:104AF000D4F8E03003F010030393039BD4F8E030C4
:104B000043F01003C4F8E030D4F8E030169603F018
:104B1000100304931023049A12930023CDE9131376
:104B2000032312A9159302F0D3FC202312A99A485B
:104B30001293169602F0CCFC402312A996481293C9
:104B4000169602F0C5FC2B68944A93422AD0944AE8
:104B500092F89120012A0AD1924A934200F02E81C4
:104B6000914A934200F0B18019B0BDE8F083D4F8C7
:104B7000E03012A98D4843F04003C4F8E030D4F887
:104B8000E030169603F0400305938023059A1293B4
:104B900002F09EFC2B68834A934200F00F817F4A0B
:104BA0009342DDD17B4E042200274FF00208D6F855
:104BB000F43012A978484FF00F0943F400137C4CED
:104BC000C6F8F430D6F8F43003F400130A930A9BC5
:104BD000D6F8E03043F01003C6F8E030D6F8E03005
:104BE00003F010030B930B9BD6F8E0301343C6F889
:104BF000E030D6F8E03014971340CDF854800C9391
:104C00000C9B0A23CDE91228169302F061FC0122C5
:104C1000012312A96748CDF84880CDE9142302F09A
:104C200057FCD6F8E03012A95B4843F01003C6F8F1
:104C3000E030D6F8E030CDF84C8003F01003CDF82A
:104C4000548014970D930D9B3023129308231693D1
:104C500002F03EFCE7604FF4806167624FF4005061
:104C6000A563C4E90197C4E90B77D6F8E03043F4B3
:104C70000013C6F8E030D6F8E030C5F8844003F4FD
:104C800000130E930E9B4FF40063C4E904134FF41A
:104C90008073C4E906034FF40033204623620323E4
:104CA000A362454B236001F08BFC204601F046FADD
:104CB0003A464946822001F0ABF8822001F0E4F840
:104CC0002B68394A93427FF44FAF324E02220820BC
:104CD0000027D6F8F03012A9354C43F48003C6F80B
:104CE000F030D6F8F03003F480030F930F9BD6F822
:104CF000E03043F01003C6F8E030D6F8E03015920B
:104D000003F0100314971093109B0623CDE91202B1
:104D10002148169302F0DCFBD6F8D8305822204602
:104D200043F00203C4E90277C6F8D830D6F8D83089
:104D300062604FF4006203F00203C5F88440A5638B
:104D400011934FF48063119923614FF4005367620C
:104D5000E7622763C4E905234FF480724FF4003300
:104D6000C4E9072303F18043032203F58E63A262A3
:104D7000236001F025FC204601F0E0F93A460F21BE
:104D80003C2001F045F83C2001F07EF819B0BDE868
:104D9000F08300BF00440258001002580454005829
:104DA0000808002404580140245801400018025803
:104DB000A8060024000802581C5402583E4C002645
:104DC00070220327D4F8F03012A93C4843F4800342
:104DD000C4F8F030D4F8F03003F480030693069B57
:104DE000D4F8E03043F01003C4F8E030D4F8E030F9
:104DF000129203F01003149615970793079B022352
:104E000013930623169302F063FBD4F8E03012A943
:104E10002B4843F04003C4F8E030D4F8E03003F00E
:104E200040030893089B8023129302F051FBD4F8AF
:104E3000D83043F00203C4F8D830D4F8D830214C2D
:104E400003F002032046C5F8804009931E4B099ADF
:104E50004FF48072DB68A762102BE660E66214BF35
:104E60004FF480534FF40063266363614FF04003B7
:104E7000A563A360154B236014BF4FF480434FF428
:104E80000053A361572363604FF4806323614FF4A1
:104E90000033C4E907230423636201F091FB204639
:104EA00001F04CF932460E21392000F0B1FF3920D3
:104EB00000F0EAFF2B6872E6004402580010025826
:104EC0000018025820070024C007002428040240CC
:104ED00038B502684FF480350446136823F48033F4
:104EE00013600023CA68C2620A6802624A6883616A
:104EF000436442608A68C0E912230A6902654A690C
:104F000082608A6942610122C261CA69036180F8D4
:104F10003830C260C0E90C33C0E90933C0E90F334F
:104F20000A6A42654A6A0366836682650422C3662A
:104F30004FF48023C565026743668B6A436705F0BB
:104F400057FE22680038136818BF01202B431360F6
:104F500038BD00BF0000000010B5B2B00C46684676
:104F600005F062F942F6113245F222639C4218BF05
:104F7000944203D04AF644439C4216D140F2AD1409
:104F80002621012319226846179302929FED0A7B7E
:104F9000CDE90341CDE905338DED007B04F0AEF999
:104FA000003818BF012032B010BD4FF4AC74072197
:104FB000E7E700BFAFF30080000100000000000041
:104FC000012800F2AB8000EBC0032DE9F04F564FF3
:104FD00093B00A68054647F8230007EB8303534E56
:104FE0000C465A604FEAC50A4A6830469A608A6899
:104FF000DA60CA685A610A6906A91A610022DA6190
:105000003423ADF820304A4B06934A4B07934A4B62
:105010000A934A4B09934A4B0B93FFF7D7FB00289F
:1050200075D13046FEF7AEFD002870D1304601A99B
:10503000FEF7DCFC00286AD1019A48F694139A42E4
:1050400065D1DFF80CB13F4BDFF808915846DFF827
:1050500008816168C8F80060C9F80030FFF77CFF7C
:10506000064600285DD1384B5846CBF80030FFF794
:1050700019FDE3684FF0400E06A95846A3F101035D
:1050800007960B96B3FA83F30D965B091B030993FE
:10509000A368202B6368069314BF8023E023089342
:1050A00001230A9380230E934FF400530C9305239E
:1050B000CDE90FE3FFF70CFF20BBA3680190202B85
:1050C0006368039314BF00230323049323680293AC
:1050D0002369642B20D8C3EB83131C4AA2FB032350
:1050E0005B09059301A9D9F80030D8F800001B68C6
:1050F000984760B9AA44022307EB8A07FB6113B003
:10510000BDE8F08F6FF0030013B0BDE8F08F6FF0D3
:10511000040013B0BDE8F08F3F23E2E76FF0010019
:1051200070476FF00800EAE7C007002498070024E2
:105130002D530008995200083D5A0008015A0008F2
:10514000795A000818000024045801401F85EB51CB
:10515000A00800243C09002438090024012822D892
:1051600000EBC00010B5164C04EB8004E368DB08CC
:10517000B2FBF3F2B2F5803F18D2E36933F00203D9
:105180000ED192B20F4805F019FF90B90E4B0F4A9D
:105190001B681068DB68984770B90123E36110BD94
:1051A0006FF0020010BD6FF0010070476FF001005A
:1051B00010BD6FF0030010BD6FF0040010BD00BF04
:1051C000C0070024A00800243C090024380900245A
:1051D000012830D8194B6429194A70B51B68044658
:1051E0000D4610685B6A12D93F2201219847C8B961
:1051F000E200144B04EBC401B5FA85F6224403EB3C
:105200008101760903EB82038E611D6170BDC1EBE4
:1052100081120D49A1FB02120121C2F347129847E6
:105220000028E5D0E200074B6FF00400224403EBB6
:1052300082031D6170BD6FF0010070473C090024BE
:1052400038090024C00700241F85EB5100B17047C6
:10525000024BD3F8800001F02DBD00BFA008002450
:10526000002008B5FBF796FF08BD00BF002008B579
:10527000FBF79CFF08BD00BF704700BF08B5054B9A
:10528000026800209A4202D0FFF7F6FF08BDFBF744
:1052900099FF08BD04580140104A08B51368013B46
:1052A00013600BB1002008BD4FF480510C4802F090
:1052B00037FA0B484FF4005102F032FA094A0A4813
:1052C000D2F8F43023F08003C2F8F43002F0F4FC9A
:1052D0000028E7D06FF0070008BD00BF9813002436
:1052E000000C025800440258400900240023012207
:1052F00010B5C0E90113C0E90323C0E90533C0E9D3
:105300000733044602F078FC08B1012010BD0146C5
:10531000204602F063FF0028F7D10146204602F044
:1053200091FF003818BF012010BD00BF984B99486D
:10533000994A2DE9F04F1C689BB002601CB1002017
:105340001BB0BDE8F08F01221A6002F041FF002877
:10535000F5D1924D4FF4805012210426D5F8E0305B
:105360004FF000084FF0020943F00803C5F8E030A1
:10537000D5F8E03003F008031193119BD5F8E03025
:1053800043F00803C5F8E030D5F8E030189603F094
:105390000803CDE91401129314A98148129BCDE9A9
:1053A000168902F095F812234FF4005214A97C4894
:1053B0001896CDE91423CDE9168902F089F8D5F8BD
:1053C000F43043F08003C5F8F430D5F8F43003F03E
:1053D00080031393139BD5F89C3043F08003C5F8EA
:1053E0009C30D5F89C3023F08003C5F89C3003F046
:1053F00049FE002800F0C0816A4B6FF01D0126466F
:105400004FF0100903EB5003DFF8A0A1B3FBF0F558
:1054100040F6F61305EB45020395A3EB8507881AC2
:10542000C5EBC5036A0020EAE07059005E4B27EA2D
:10543000E7771B688B460F91CDE90042B7EB450F2C
:10544000AE4605EB45012CBF4FF0010C4FF0000CB0
:10545000B0EB450F0CF0010205EB850488BF00227C
:105460008842C5EBC50802928CBF002201228F4200
:1054700038BF0022B0EB850F94BF4FF0010C4FF006
:10548000000CB7EB850F04920CF0010C05EB440205
:1054900038BF4FF0000CA0420C9205EB8102CDF812
:1054A00014C08CBF4FF0000C4FF0010CA7420E92BD
:1054B00038BF4FF0000CB0EB410F6246CDF818C07A
:1054C0004FF0000C94BF01226246B7EB410F02F08F
:1054D000010238BF0022404507928CBF0022012202
:1054E000474538BF0022B0EBC50F94BF4FF001080D
:1054F000E046B7EBC50F089208F0010838BF4FF03F
:1055000000084246CDF8248005EBC50840458CBF15
:1055100000220122474538BF0022B0EB440F0A9217
:1055200098BF4FF001080C9A88BFE046B7EB440FD4
:1055300008F0010438BF002490420B9414468CBF3D
:1055400000240124974238BF0024B0EB810F0C9453
:1055500094BF01246446B7EB810F0E9904F0010259
:1055600038BF002281420D920A4634BF0022012238
:10557000B942C5EB051188BF002281420E9234BFAB
:1055800000220122B94288BF0022904615E000BFE8
:105590009813002440090024001C005800440258BD
:1055A000000C025800CA9A3B940900249809002470
:1055B000BCF1100FAE4400F0128240F27931624625
:1055C0000CF1010C8E45F3D9002840F0DF80B14585
:1055D00000F0DC8003EB8301013300244AF82160F2
:1055E0007F2B0AEB81014A608C6000F27381B14627
:1055F000B14500F031810299002900F0E18003EB10
:105600008301013302244AF821607F2B0AEB8101D8
:105610004A608C6000F25E81B146B14500F01C81A9
:105620000599002900F0DF8003EB83010133042496
:105630004AF821607F2B0AEB81014A608C6000F2FE
:105640004981B146B14500F007810799002900F072
:10565000DD8003EB8301013306244AF821607F2BB0
:105660000AEB81014A608C6000F23481B146B14599
:1056700000F0F2800999002900F0DB8003EB830140
:10568000013308244AF821607F2B0AEB81014A602C
:105690008C6000F21F81B146B14500F0DD800B99AE
:1056A000002900F0D98003EB830101330A244AF872
:1056B00021607F2B0AEB81014A608C6000F20A8135
:1056C000B1464E4511D00D99002900F0D98003EB69
:1056D000830101330C244AF821607F2B0AEB8101FE
:1056E0004A608C6000F2F680B14658458CBF0021BC
:1056F00001215F4538BF0021002900F0D5804E45CB
:105700003FF456AF03EB830101334AF821600AEB03
:1057100081017F2B4A604FF00E028A6000F2DA802E
:10572000B14645E7079A6146029809F1140901322A
:105730000C9B82420792DDE90AC440F0F280019B93
:10574000099C7F2B18D803EB8303A94901EB830243
:1057500051F823405068137C000543EA047300F4B9
:105760007000D2E9021203430904120201F470210D
:1057700092B20B4343EA020421469E48FFF7B6FD6E
:1057800000283FF4DCAD6FF00700D9E5AF4234BF2D
:1057900000210121A84288BF002100293FF428AF41
:1057A000B14559D003EB8301013301244AF821604C
:1057B0007F2B0AEB81014A608C6000F28B80B1463E
:1057C000B14549D0049900293FF427AF03EB830189
:1057D000013303244AF821607F2B0AEB81014A60E0
:1057E0008C6077D8B146B14536D0069900293FF490
:1057F00029AF03EB8301013305244AF821607F2B95
:105800000AEB81014A608C6064D8B146B14523D06F
:10581000089900293FF42BAF03EB830101330724E0
:105820004AF821607F2B0AEB81014A608C6051D8D5
:10583000B146B14510D00A9900293FF42DAF03EBD2
:105840008301013309244AF821607F2B0AEB81018F
:105850004A608C603ED8B1464E453FF446AF0C9945
:1058600000293FF42EAF03EB830101330B244AF8E8
:1058700021607F2B0AEB81014A608C602AD8B146F7
:105880004E453FF432AF0E9900293FF42EAF03EBA3
:10589000830101330D244AF821607F2B0AEB81013B
:1058A0004A608C6016D8B1464E453FF481AE414601
:1058B00000293FF47DAE03EB83044D49013341F8E9
:1058C000246001EB84017F2B4A604FF00F028A6055
:1058D0007FF626AF4849009C019A02930B60002B8B
:1058E0003FF44AAF039840F69F7641F20C234349B8
:1058F00002F132058642A3EB020311444FF000028D
:1059000009949C4638BF06460B460792DFF8E090A4
:105910004FF0FF3242F2107B41F2470A2C4601461B
:105920000192D9F800000025CDF828C000FB011035
:10593000ACEB000227188C464FEA42081A18CDE952
:105940000B43089206E0B5F5807F0744A8EB0008FA
:105950003FF4E8AE41F25C23009501359F42F2D955
:10596000A7F13203BCEB930FEDD242F24A4E44460C
:105970000022AEEB030E089BCDE9035CCDE9057870
:105980003B44DDF804C0DDF81C8005E0B2F5807F03
:105990000344A4EB00041AD00EEB0301174603F2F4
:1059A00083650132B142F1D95545EFD833EA23017D
:1059B00028BF21468B45E9D98B46B2F5807F0099F7
:1059C000C4460344A4EB0004C9E90371E4D1CDF853
:1059D00004C0039DDDF81880DDE904C7B3E7039A2E
:1059E00001361544102E0F9A93447FF427AD71E7CA
:1059F000980900244009002494090024B6DBFFFF25
:105A000030B5144685B04FF47A750A4601930146C5
:105A1000022309480295009402F068F908B905B01C
:105A200030BD054802F0D8FB042814BF6FF0030016
:105A30006FF06500F3E700BF4009002430B514465D
:105A400085B04FF47A750A4601930146022309484E
:105A50000295009402F07EFA08B905B030BD054801
:105A600002F0BAFB042814BF6FF003006FF065006A
:105A7000F3E700BF4009002400F09AB900000000DD
:105A800030B5042289B00124174902922025C26052
:105A90004FF4C0720160002102230561C1610693C9
:105AA000C0E901444024C0E905424FF400644FF4CA
:105AB00080529FED0B7BC0E908420C4C0722A1628B
:105AC00069460392CDE900328DED047B05F078FB49
:105AD000003818BF012009B030BD00BFAFF300800F
